{
  "_format": "hh-sol-artifact-1",
  "contractName": "DynamicPriceToken",
  "sourceName": "contracts/DynamicPrice.sol",
  "abi": [
    {
      "inputs": [],
      "stateMutability": "nonpayable",
      "type": "constructor"
    },
    {
      "anonymous": false,
      "inputs": [
        {
          "indexed": true,
          "internalType": "address",
          "name": "owner",
          "type": "address"
        },
        {
          "indexed": true,
          "internalType": "address",
          "name": "approved",
          "type": "address"
        },
        {
          "indexed": true,
          "internalType": "uint256",
          "name": "tokenId",
          "type": "uint256"
        }
      ],
      "name": "Approval",
      "type": "event"
    },
    {
      "anonymous": false,
      "inputs": [
        {
          "indexed": true,
          "internalType": "address",
          "name": "owner",
          "type": "address"
        },
        {
          "indexed": true,
          "internalType": "address",
          "name": "operator",
          "type": "address"
        },
        {
          "indexed": false,
          "internalType": "bool",
          "name": "approved",
          "type": "bool"
        }
      ],
      "name": "ApprovalForAll",
      "type": "event"
    },
    {
      "anonymous": false,
      "inputs": [
        {
          "indexed": false,
          "internalType": "address",
          "name": "sender",
          "type": "address"
        },
        {
          "indexed": false,
          "internalType": "uint256",
          "name": "startTime",
          "type": "uint256"
        },
        {
          "indexed": false,
          "internalType": "uint256",
          "name": "offeringPrice",
          "type": "uint256"
        }
      ],
      "name": "InitOffering",
      "type": "event"
    },
    {
      "anonymous": false,
      "inputs": [
        {
          "indexed": false,
          "internalType": "address",
          "name": "sender",
          "type": "address"
        },
        {
          "indexed": false,
          "internalType": "uint256",
          "name": "tokenId",
          "type": "uint256"
        }
      ],
      "name": "NewNFTMinted",
      "type": "event"
    },
    {
      "anonymous": false,
      "inputs": [
        {
          "indexed": false,
          "internalType": "address",
          "name": "sender",
          "type": "address"
        },
        {
          "indexed": false,
          "internalType": "uint256",
          "name": "safedPrice",
          "type": "uint256"
        }
      ],
      "name": "PriceClaimed",
      "type": "event"
    },
    {
      "anonymous": false,
      "inputs": [
        {
          "indexed": true,
          "internalType": "bytes32",
          "name": "role",
          "type": "bytes32"
        },
        {
          "indexed": true,
          "internalType": "bytes32",
          "name": "previousAdminRole",
          "type": "bytes32"
        },
        {
          "indexed": true,
          "internalType": "bytes32",
          "name": "newAdminRole",
          "type": "bytes32"
        }
      ],
      "name": "RoleAdminChanged",
      "type": "event"
    },
    {
      "anonymous": false,
      "inputs": [
        {
          "indexed": true,
          "internalType": "bytes32",
          "name": "role",
          "type": "bytes32"
        },
        {
          "indexed": true,
          "internalType": "address",
          "name": "account",
          "type": "address"
        },
        {
          "indexed": true,
          "internalType": "address",
          "name": "sender",
          "type": "address"
        }
      ],
      "name": "RoleGranted",
      "type": "event"
    },
    {
      "anonymous": false,
      "inputs": [
        {
          "indexed": true,
          "internalType": "bytes32",
          "name": "role",
          "type": "bytes32"
        },
        {
          "indexed": true,
          "internalType": "address",
          "name": "account",
          "type": "address"
        },
        {
          "indexed": true,
          "internalType": "address",
          "name": "sender",
          "type": "address"
        }
      ],
      "name": "RoleRevoked",
      "type": "event"
    },
    {
      "anonymous": false,
      "inputs": [
        {
          "indexed": true,
          "internalType": "address",
          "name": "from",
          "type": "address"
        },
        {
          "indexed": true,
          "internalType": "address",
          "name": "to",
          "type": "address"
        },
        {
          "indexed": true,
          "internalType": "uint256",
          "name": "tokenId",
          "type": "uint256"
        }
      ],
      "name": "Transfer",
      "type": "event"
    },
    {
      "inputs": [],
      "name": "DEFAULT_ADMIN_ROLE",
      "outputs": [
        {
          "internalType": "bytes32",
          "name": "",
          "type": "bytes32"
        }
      ],
      "stateMutability": "view",
      "type": "function"
    },
    {
      "inputs": [
        {
          "internalType": "address",
          "name": "to",
          "type": "address"
        },
        {
          "internalType": "uint256",
          "name": "tokenId",
          "type": "uint256"
        }
      ],
      "name": "approve",
      "outputs": [],
      "stateMutability": "nonpayable",
      "type": "function"
    },
    {
      "inputs": [
        {
          "internalType": "address",
          "name": "owner",
          "type": "address"
        }
      ],
      "name": "balanceOf",
      "outputs": [
        {
          "internalType": "uint256",
          "name": "",
          "type": "uint256"
        }
      ],
      "stateMutability": "view",
      "type": "function"
    },
    {
      "inputs": [],
      "name": "calculateDynamicPrice",
      "outputs": [
        {
          "internalType": "uint256",
          "name": "",
          "type": "uint256"
        },
        {
          "internalType": "uint256",
          "name": "",
          "type": "uint256"
        }
      ],
      "stateMutability": "nonpayable",
      "type": "function"
    },
    {
      "inputs": [],
      "name": "calculateSale",
      "outputs": [
        {
          "internalType": "uint256",
          "name": "",
          "type": "uint256"
        },
        {
          "internalType": "uint256",
          "name": "",
          "type": "uint256"
        }
      ],
      "stateMutability": "nonpayable",
      "type": "function"
    },
    {
      "inputs": [],
      "name": "currentTime",
      "outputs": [
        {
          "internalType": "uint256",
          "name": "",
          "type": "uint256"
        }
      ],
      "stateMutability": "view",
      "type": "function"
    },
    {
      "inputs": [],
      "name": "durationTime",
      "outputs": [
        {
          "internalType": "uint256",
          "name": "",
          "type": "uint256"
        }
      ],
      "stateMutability": "view",
      "type": "function"
    },
    {
      "inputs": [],
      "name": "dynamicPrice",
      "outputs": [
        {
          "internalType": "uint256",
          "name": "",
          "type": "uint256"
        }
      ],
      "stateMutability": "view",
      "type": "function"
    },
    {
      "inputs": [
        {
          "internalType": "uint256",
          "name": "tokenId",
          "type": "uint256"
        }
      ],
      "name": "getApproved",
      "outputs": [
        {
          "internalType": "address",
          "name": "",
          "type": "address"
        }
      ],
      "stateMutability": "view",
      "type": "function"
    },
    {
      "inputs": [],
      "name": "getLastPrice",
      "outputs": [
        {
          "internalType": "uint256",
          "name": "",
          "type": "uint256"
        }
      ],
      "stateMutability": "view",
      "type": "function"
    },
    {
      "inputs": [
        {
          "internalType": "bytes32",
          "name": "role",
          "type": "bytes32"
        }
      ],
      "name": "getRoleAdmin",
      "outputs": [
        {
          "internalType": "bytes32",
          "name": "",
          "type": "bytes32"
        }
      ],
      "stateMutability": "view",
      "type": "function"
    },
    {
      "inputs": [
        {
          "internalType": "bytes32",
          "name": "role",
          "type": "bytes32"
        },
        {
          "internalType": "address",
          "name": "account",
          "type": "address"
        }
      ],
      "name": "grantRole",
      "outputs": [],
      "stateMutability": "nonpayable",
      "type": "function"
    },
    {
      "inputs": [
        {
          "internalType": "bytes32",
          "name": "role",
          "type": "bytes32"
        },
        {
          "internalType": "address",
          "name": "account",
          "type": "address"
        }
      ],
      "name": "hasRole",
      "outputs": [
        {
          "internalType": "bool",
          "name": "",
          "type": "bool"
        }
      ],
      "stateMutability": "view",
      "type": "function"
    },
    {
      "inputs": [
        {
          "internalType": "uint256",
          "name": "_maxSupply",
          "type": "uint256"
        },
        {
          "internalType": "uint256",
          "name": "_offeringPrice",
          "type": "uint256"
        },
        {
          "internalType": "uint256",
          "name": "_durationTime",
          "type": "uint256"
        }
      ],
      "name": "initOffering",
      "outputs": [
        {
          "internalType": "uint256",
          "name": "",
          "type": "uint256"
        },
        {
          "internalType": "uint256",
          "name": "",
          "type": "uint256"
        },
        {
          "internalType": "uint256",
          "name": "",
          "type": "uint256"
        },
        {
          "internalType": "bool",
          "name": "",
          "type": "bool"
        }
      ],
      "stateMutability": "nonpayable",
      "type": "function"
    },
    {
      "inputs": [
        {
          "internalType": "address",
          "name": "owner",
          "type": "address"
        },
        {
          "internalType": "address",
          "name": "operator",
          "type": "address"
        }
      ],
      "name": "isApprovedForAll",
      "outputs": [
        {
          "internalType": "bool",
          "name": "",
          "type": "bool"
        }
      ],
      "stateMutability": "view",
      "type": "function"
    },
    {
      "inputs": [],
      "name": "maxSupply",
      "outputs": [
        {
          "internalType": "uint256",
          "name": "",
          "type": "uint256"
        }
      ],
      "stateMutability": "view",
      "type": "function"
    },
    {
      "inputs": [],
      "name": "maxSupply2",
      "outputs": [
        {
          "internalType": "uint256",
          "name": "",
          "type": "uint256"
        }
      ],
      "stateMutability": "view",
      "type": "function"
    },
    {
      "inputs": [],
      "name": "name",
      "outputs": [
        {
          "internalType": "string",
          "name": "",
          "type": "string"
        }
      ],
      "stateMutability": "view",
      "type": "function"
    },
    {
      "inputs": [],
      "name": "offeringPrice",
      "outputs": [
        {
          "internalType": "uint256",
          "name": "",
          "type": "uint256"
        }
      ],
      "stateMutability": "view",
      "type": "function"
    },
    {
      "inputs": [
        {
          "internalType": "uint256",
          "name": "tokenId",
          "type": "uint256"
        }
      ],
      "name": "ownerOf",
      "outputs": [
        {
          "internalType": "address",
          "name": "",
          "type": "address"
        }
      ],
      "stateMutability": "view",
      "type": "function"
    },
    {
      "inputs": [],
      "name": "plannedSale",
      "outputs": [
        {
          "internalType": "uint256",
          "name": "",
          "type": "uint256"
        }
      ],
      "stateMutability": "view",
      "type": "function"
    },
    {
      "inputs": [],
      "name": "priceKoefficient",
      "outputs": [
        {
          "internalType": "uint256",
          "name": "",
          "type": "uint256"
        }
      ],
      "stateMutability": "view",
      "type": "function"
    },
    {
      "inputs": [
        {
          "internalType": "bytes32",
          "name": "role",
          "type": "bytes32"
        },
        {
          "internalType": "address",
          "name": "account",
          "type": "address"
        }
      ],
      "name": "renounceRole",
      "outputs": [],
      "stateMutability": "nonpayable",
      "type": "function"
    },
    {
      "inputs": [
        {
          "internalType": "bytes32",
          "name": "role",
          "type": "bytes32"
        },
        {
          "internalType": "address",
          "name": "account",
          "type": "address"
        }
      ],
      "name": "revokeRole",
      "outputs": [],
      "stateMutability": "nonpayable",
      "type": "function"
    },
    {
      "inputs": [],
      "name": "safeMint",
      "outputs": [],
      "stateMutability": "payable",
      "type": "function"
    },
    {
      "inputs": [
        {
          "internalType": "address",
          "name": "from",
          "type": "address"
        },
        {
          "internalType": "address",
          "name": "to",
          "type": "address"
        },
        {
          "internalType": "uint256",
          "name": "tokenId",
          "type": "uint256"
        }
      ],
      "name": "safeTransferFrom",
      "outputs": [],
      "stateMutability": "nonpayable",
      "type": "function"
    },
    {
      "inputs": [
        {
          "internalType": "address",
          "name": "from",
          "type": "address"
        },
        {
          "internalType": "address",
          "name": "to",
          "type": "address"
        },
        {
          "internalType": "uint256",
          "name": "tokenId",
          "type": "uint256"
        },
        {
          "internalType": "bytes",
          "name": "data",
          "type": "bytes"
        }
      ],
      "name": "safeTransferFrom",
      "outputs": [],
      "stateMutability": "nonpayable",
      "type": "function"
    },
    {
      "inputs": [
        {
          "internalType": "uint256",
          "name": "_currentDynamicPrice",
          "type": "uint256"
        }
      ],
      "name": "safeYourPrice",
      "outputs": [
        {
          "internalType": "uint256",
          "name": "",
          "type": "uint256"
        }
      ],
      "stateMutability": "nonpayable",
      "type": "function"
    },
    {
      "inputs": [],
      "name": "safedPrice",
      "outputs": [
        {
          "internalType": "uint256",
          "name": "",
          "type": "uint256"
        }
      ],
      "stateMutability": "view",
      "type": "function"
    },
    {
      "inputs": [],
      "name": "safedPriceCalc",
      "outputs": [
        {
          "internalType": "bool",
          "name": "",
          "type": "bool"
        }
      ],
      "stateMutability": "view",
      "type": "function"
    },
    {
      "inputs": [
        {
          "internalType": "address",
          "name": "operator",
          "type": "address"
        },
        {
          "internalType": "bool",
          "name": "approved",
          "type": "bool"
        }
      ],
      "name": "setApprovalForAll",
      "outputs": [],
      "stateMutability": "nonpayable",
      "type": "function"
    },
    {
      "inputs": [],
      "name": "startTime",
      "outputs": [
        {
          "internalType": "uint256",
          "name": "",
          "type": "uint256"
        }
      ],
      "stateMutability": "view",
      "type": "function"
    },
    {
      "inputs": [],
      "name": "supplyPerUnit",
      "outputs": [
        {
          "internalType": "uint256",
          "name": "",
          "type": "uint256"
        }
      ],
      "stateMutability": "view",
      "type": "function"
    },
    {
      "inputs": [
        {
          "internalType": "bytes4",
          "name": "interfaceId",
          "type": "bytes4"
        }
      ],
      "name": "supportsInterface",
      "outputs": [
        {
          "internalType": "bool",
          "name": "",
          "type": "bool"
        }
      ],
      "stateMutability": "view",
      "type": "function"
    },
    {
      "inputs": [],
      "name": "symbol",
      "outputs": [
        {
          "internalType": "string",
          "name": "",
          "type": "string"
        }
      ],
      "stateMutability": "view",
      "type": "function"
    },
    {
      "inputs": [
        {
          "internalType": "uint256",
          "name": "index",
          "type": "uint256"
        }
      ],
      "name": "tokenByIndex",
      "outputs": [
        {
          "internalType": "uint256",
          "name": "",
          "type": "uint256"
        }
      ],
      "stateMutability": "view",
      "type": "function"
    },
    {
      "inputs": [],
      "name": "tokenCounter2",
      "outputs": [
        {
          "internalType": "uint256",
          "name": "",
          "type": "uint256"
        }
      ],
      "stateMutability": "view",
      "type": "function"
    },
    {
      "inputs": [
        {
          "internalType": "address",
          "name": "owner",
          "type": "address"
        },
        {
          "internalType": "uint256",
          "name": "index",
          "type": "uint256"
        }
      ],
      "name": "tokenOfOwnerByIndex",
      "outputs": [
        {
          "internalType": "uint256",
          "name": "",
          "type": "uint256"
        }
      ],
      "stateMutability": "view",
      "type": "function"
    },
    {
      "inputs": [
        {
          "internalType": "uint256",
          "name": "tokenId",
          "type": "uint256"
        }
      ],
      "name": "tokenURI",
      "outputs": [
        {
          "internalType": "string",
          "name": "",
          "type": "string"
        }
      ],
      "stateMutability": "view",
      "type": "function"
    },
    {
      "inputs": [],
      "name": "totalSupply",
      "outputs": [
        {
          "internalType": "uint256",
          "name": "",
          "type": "uint256"
        }
      ],
      "stateMutability": "view",
      "type": "function"
    },
    {
      "inputs": [
        {
          "internalType": "address",
          "name": "from",
          "type": "address"
        },
        {
          "internalType": "address",
          "name": "to",
          "type": "address"
        },
        {
          "internalType": "uint256",
          "name": "tokenId",
          "type": "uint256"
        }
      ],
      "name": "transferFrom",
      "outputs": [],
      "stateMutability": "nonpayable",
      "type": "function"
    }
  ],
  "bytecode": "0x60806040526000601160006101000a81548160ff0219169083151502179055503480156200002c57600080fd5b506040518060400160405280601181526020017f44796e616d69635072696365546f6b656e0000000000000000000000000000008152506040518060400160405280600381526020017f44505400000000000000000000000000000000000000000000000000000000008152508160009081620000aa91906200035a565b508060019081620000bc91906200035a565b5050506000601660006101000a81548160ff02191690831515021790555062000441565b600081519050919050565b7f4e487b7100000000000000000000000000000000000000000000000000000000600052604160045260246000fd5b7f4e487b7100000000000000000000000000000000000000000000000000000000600052602260045260246000fd5b600060028204905060018216806200016257607f821691505b6020821081036200017857620001776200011a565b5b50919050565b60008190508160005260206000209050919050565b60006020601f8301049050919050565b600082821b905092915050565b600060088302620001e27fffffffffffffffffffffffffffffffffffffffffffffffffffffffffffffffff82620001a3565b620001ee8683620001a3565b95508019841693508086168417925050509392505050565b6000819050919050565b6000819050919050565b60006200023b620002356200022f8462000206565b62000210565b62000206565b9050919050565b6000819050919050565b62000257836200021a565b6200026f620002668262000242565b848454620001b0565b825550505050565b600090565b6200028662000277565b620002938184846200024c565b505050565b5b81811015620002bb57620002af6000826200027c565b60018101905062000299565b5050565b601f8211156200030a57620002d4816200017e565b620002df8462000193565b81016020851015620002ef578190505b62000307620002fe8562000193565b83018262000298565b50505b505050565b600082821c905092915050565b60006200032f600019846008026200030f565b1980831691505092915050565b60006200034a83836200031c565b9150826002028217905092915050565b6200036582620000e0565b67ffffffffffffffff811115620003815762000380620000eb565b5b6200038d825462000149565b6200039a828285620002bf565b600060209050601f831160018114620003d25760008415620003bd578287015190505b620003c985826200033c565b86555062000439565b601f198416620003e2866200017e565b60005b828110156200040c57848901518255600182019150602085019450602081019050620003e5565b868310156200042c578489015162000428601f8916826200031c565b8355505b6001600288020188555050505b505050505050565b61455080620004516000396000f3fe6080604052600436106102465760003560e01c80636871ee4011610139578063b88d4fde116100b6578063d5abeb011161007a578063d5abeb01146108c6578063d8cf24fd146108f1578063e28936b11461091c578063e985e9c514610947578063f8b75fb514610984578063fe9f2a10146109af57610246565b8063b88d4fde146107e1578063bdd742f51461080a578063c87b56dd14610835578063d18e81b314610872578063d547741f1461089d57610246565b806391d14854116100fd57806391d14854146106e857806395d89b41146107255780639995057414610750578063a217fddf1461078d578063a22cb465146107b857610246565b80636871ee40146106205780636b0891d91461062a57806370a082311461065557806378e97925146106925780637e7603e8146106bd57610246565b80632db37089116101c75780633d06a9691161018b5780633d06a9691461052757806342842e0e146105525780634f6ccce71461057b57806350dae547146105b85780636352211e146105e357610246565b80632db37089146104415780632f2ff15d1461046c5780632f745c591461049557806336568abe146104d2578063386a15cd146104fb57610246565b80631722205b1161020e5780631722205b1461035957806318160ddd1461038557806321933916146103b057806323b872dd146103db578063248a9ca31461040457610246565b806301ffc9a71461024b57806306fdde0314610288578063081812fc146102b3578063095ea7b3146102f05780630f745ada14610319575b600080fd5b34801561025757600080fd5b50610272600480360381019061026d9190612dff565b6109da565b60405161027f9190612e47565b60405180910390f35b34801561029457600080fd5b5061029d6109ec565b6040516102aa9190612ef2565b60405180910390f35b3480156102bf57600080fd5b506102da60048036038101906102d59190612f4a565b610a7e565b6040516102e79190612fb8565b60405180910390f35b3480156102fc57600080fd5b5061031760048036038101906103129190612fff565b610ac4565b005b34801561032557600080fd5b50610340600480360381019061033b919061303f565b610bdb565b60405161035094939291906130a1565b60405180910390f35b34801561036557600080fd5b5061036e610cac565b60405161037c9291906130e6565b60405180910390f35b34801561039157600080fd5b5061039a610d2e565b6040516103a7919061310f565b60405180910390f35b3480156103bc57600080fd5b506103c5610d3b565b6040516103d2919061310f565b60405180910390f35b3480156103e757600080fd5b5061040260048036038101906103fd919061312a565b610d41565b005b34801561041057600080fd5b5061042b600480360381019061042691906131b3565b610da1565b60405161043891906131ef565b60405180910390f35b34801561044d57600080fd5b50610456610dc1565b604051610463919061310f565b60405180910390f35b34801561047857600080fd5b50610493600480360381019061048e919061320a565b610dc7565b005b3480156104a157600080fd5b506104bc60048036038101906104b79190612fff565b610de8565b6040516104c9919061310f565b60405180910390f35b3480156104de57600080fd5b506104f960048036038101906104f4919061320a565b610e8d565b005b34801561050757600080fd5b50610510610f10565b60405161051e9291906130e6565b60405180910390f35b34801561053357600080fd5b5061053c610f4b565b604051610549919061310f565b60405180910390f35b34801561055e57600080fd5b506105796004803603810190610574919061312a565b610f51565b005b34801561058757600080fd5b506105a2600480360381019061059d9190612f4a565b610f71565b6040516105af919061310f565b60405180910390f35b3480156105c457600080fd5b506105cd610fe2565b6040516105da919061310f565b60405180910390f35b3480156105ef57600080fd5b5061060a60048036038101906106059190612f4a565b610fe8565b6040516106179190612fb8565b60405180910390f35b610628611099565b005b34801561063657600080fd5b5061063f6111f8565b60405161064c919061310f565b60405180910390f35b34801561066157600080fd5b5061067c6004803603810190610677919061324a565b6111fe565b604051610689919061310f565b60405180910390f35b34801561069e57600080fd5b506106a76112b5565b6040516106b4919061310f565b60405180910390f35b3480156106c957600080fd5b506106d26112bb565b6040516106df919061310f565b60405180910390f35b3480156106f457600080fd5b5061070f600480360381019061070a919061320a565b6112c1565b60405161071c9190612e47565b60405180910390f35b34801561073157600080fd5b5061073a61132c565b6040516107479190612ef2565b60405180910390f35b34801561075c57600080fd5b5061077760048036038101906107729190612f4a565b6113be565b604051610784919061310f565b60405180910390f35b34801561079957600080fd5b506107a2611469565b6040516107af91906131ef565b60405180910390f35b3480156107c457600080fd5b506107df60048036038101906107da91906132a3565b611470565b005b3480156107ed57600080fd5b5061080860048036038101906108039190613418565b611486565b005b34801561081657600080fd5b5061081f6114e8565b60405161082c919061310f565b60405180910390f35b34801561084157600080fd5b5061085c60048036038101906108579190612f4a565b6114ee565b6040516108699190612ef2565b60405180910390f35b34801561087e57600080fd5b50610887611556565b604051610894919061310f565b60405180910390f35b3480156108a957600080fd5b506108c460048036038101906108bf919061320a565b61155c565b005b3480156108d257600080fd5b506108db61157d565b6040516108e8919061310f565b60405180910390f35b3480156108fd57600080fd5b50610906611583565b604051610913919061310f565b60405180910390f35b34801561092857600080fd5b506109316115ec565b60405161093e9190612e47565b60405180910390f35b34801561095357600080fd5b5061096e6004803603810190610969919061349b565b6115ff565b60405161097b9190612e47565b60405180910390f35b34801561099057600080fd5b50610999611693565b6040516109a6919061310f565b60405180910390f35b3480156109bb57600080fd5b506109c4611699565b6040516109d1919061310f565b60405180910390f35b60006109e58261169f565b9050919050565b6060600080546109fb9061350a565b80601f0160208091040260200160405190810160405280929190818152602001828054610a279061350a565b8015610a745780601f10610a4957610100808354040283529160200191610a74565b820191906000526020600020905b815481529060010190602001808311610a5757829003601f168201915b5050505050905090565b6000610a8982611719565b6004600083815260200190815260200160002060009054906101000a900473ffffffffffffffffffffffffffffffffffffffff169050919050565b6000610acf82610fe8565b90508073ffffffffffffffffffffffffffffffffffffffff168373ffffffffffffffffffffffffffffffffffffffff1603610b3f576040517f08c379a0000000000000000000000000000000000000000000000000000000008152600401610b36906135ad565b60405180910390fd5b8073ffffffffffffffffffffffffffffffffffffffff16610b5e611764565b73ffffffffffffffffffffffffffffffffffffffff161480610b8d5750610b8c81610b87611764565b6115ff565b5b610bcc576040517f08c379a0000000000000000000000000000000000000000000000000000000008152600401610bc39061363f565b60405180910390fd5b610bd6838361176c565b505050565b60008060008042600c81905550601287610bf591906137ce565b600e81905550600e54600d8190555085600f81905550846010819055506001601160006101000a81548160ff021916908315150217905550601054600d54610c3d9190613848565b6012819055507f8fbf5a4bfef0c5bfb4bcd172b0cee35f6f8ddec854ea12d0b05028e9446ebd7433600c54600f54604051610c7a93929190613879565b60405180910390a1601254600f54600c54601160009054906101000a900460ff16935093509350935093509350935093565b600080610cb7610f10565b5050600b60000154601781905550670de0b6b3a7640000601754610cdb91906138b0565b601881905550601454670de0b6b3a7640000601854610cfa91906138b0565b610d049190613848565b601981905550600f54601954610d1a91906138b0565b601a81905550601854601954915091509091565b6000600880549050905090565b60185481565b610d52610d4c611764565b82611825565b610d91576040517f08c379a0000000000000000000000000000000000000000000000000000000008152600401610d8890613964565b60405180910390fd5b610d9c8383836118ba565b505050565b6000600a6000838152602001908152602001600020600101549050919050565b60145481565b610dd082610da1565b610dd981611b20565b610de38383611b34565b505050565b6000610df3836111fe565b8210610e34576040517f08c379a0000000000000000000000000000000000000000000000000000000008152600401610e2b906139f6565b60405180910390fd5b600660008473ffffffffffffffffffffffffffffffffffffffff1673ffffffffffffffffffffffffffffffffffffffff168152602001908152602001600020600083815260200190815260200160002054905092915050565b610e95611764565b73ffffffffffffffffffffffffffffffffffffffff168173ffffffffffffffffffffffffffffffffffffffff1614610f02576040517f08c379a0000000000000000000000000000000000000000000000000000000008152600401610ef990613a88565b60405180910390fd5b610f0c8282611c15565b5050565b600080600c5442610f219190613aa8565b601381905550601354601254610f3791906138b0565b601481905550601354601454915091509091565b601a5481565b610f6c83838360405180602001604052806000815250611486565b505050565b6000610f7b610d2e565b8210610fbc576040517f08c379a0000000000000000000000000000000000000000000000000000000008152600401610fb390613b4e565b60405180910390fd5b60088281548110610fd057610fcf613b6e565b5b90600052602060002001549050919050565b600e5481565b6000806002600084815260200190815260200160002060009054906101000a900473ffffffffffffffffffffffffffffffffffffffff169050600073ffffffffffffffffffffffffffffffffffffffff168173ffffffffffffffffffffffffffffffffffffffff1603611090576040517f08c379a000000000000000000000000000000000000000000000000000000000815260040161108790613be9565b60405180910390fd5b80915050919050565b60011515601660009054906101000a900460ff161515146110ef576040517f08c379a00000000000000000000000000000000000000000000000000000000081526004016110e690613c55565b60405180910390fd5b601554341015611134576040517f08c379a000000000000000000000000000000000000000000000000000000000815260040161112b90613cc1565b60405180910390fd5b600d5461113f610d2e565b1061117f576040517f08c379a000000000000000000000000000000000000000000000000000000000815260040161117690613d53565b60405180910390fd5b600061118b600b611cf7565b9050611197600b611d05565b6111a13382611d1b565b6000601660006101000a81548160ff0219169083151502179055507f1c05098ed1ff38e6238d2b1b04b2c7977d4c94ce651bda6473f9dba8dbf01da033826040516111ed929190613d73565b60405180910390a150565b60155481565b60008073ffffffffffffffffffffffffffffffffffffffff168273ffffffffffffffffffffffffffffffffffffffff160361126e576040517f08c379a000000000000000000000000000000000000000000000000000000000815260040161126590613e0e565b60405180910390fd5b600360008373ffffffffffffffffffffffffffffffffffffffff1673ffffffffffffffffffffffffffffffffffffffff168152602001908152602001600020549050919050565b600c5481565b60125481565b6000600a600084815260200190815260200160002060000160008373ffffffffffffffffffffffffffffffffffffffff1673ffffffffffffffffffffffffffffffffffffffff16815260200190815260200160002060009054906101000a900460ff16905092915050565b60606001805461133b9061350a565b80601f01602080910402602001604051908101604052809291908181526020018280546113679061350a565b80156113b45780601f10611389576101008083540402835291602001916113b4565b820191906000526020600020905b81548152906001019060200180831161139757829003601f168201915b5050505050905090565b6000808203611402576040517f08c379a00000000000000000000000000000000000000000000000000000000081526004016113f990613e7a565b60405180910390fd5b816015819055506001601660006101000a81548160ff0219169083151502179055507fa672a2ef3daba34158f3a6fccc0f1744b3ca7b9fca4ee38a1dcf55238f04241e33601554604051611457929190613d73565b60405180910390a16015549050919050565b6000801b81565b61148261147b611764565b8383611d39565b5050565b611497611491611764565b83611825565b6114d6576040517f08c379a00000000000000000000000000000000000000000000000000000000081526004016114cd90613964565b60405180910390fd5b6114e284848484611ea5565b50505050565b60195481565b60606114f982611719565b6000611503611f01565b90506000815111611523576040518060200160405280600081525061154e565b8061152d84611f18565b60405160200161153e929190613ed6565b6040516020818303038152906040525b915050919050565b60135481565b61156582610da1565b61156e81611b20565b6115788383611c15565b505050565b600d5481565b600080600c54426115949190613aa8565b90506000816012546115a691906138b0565b9050600081670de0b6b3a7640000600b600001546115c491906138b0565b6115ce9190613848565b90506000600f54826115e091906138b0565b90508094505050505090565b601660009054906101000a900460ff1681565b6000600560008473ffffffffffffffffffffffffffffffffffffffff1673ffffffffffffffffffffffffffffffffffffffff16815260200190815260200160002060008373ffffffffffffffffffffffffffffffffffffffff1673ffffffffffffffffffffffffffffffffffffffff16815260200190815260200160002060009054906101000a900460ff16905092915050565b60105481565b600f5481565b60007f7965db0b000000000000000000000000000000000000000000000000000000007bffffffffffffffffffffffffffffffffffffffffffffffffffffffff1916827bffffffffffffffffffffffffffffffffffffffffffffffffffffffff19161480611712575061171182612078565b5b9050919050565b611722816120f2565b611761576040517f08c379a000000000000000000000000000000000000000000000000000000000815260040161175890613be9565b60405180910390fd5b50565b600033905090565b816004600083815260200190815260200160002060006101000a81548173ffffffffffffffffffffffffffffffffffffffff021916908373ffffffffffffffffffffffffffffffffffffffff160217905550808273ffffffffffffffffffffffffffffffffffffffff166117df83610fe8565b73ffffffffffffffffffffffffffffffffffffffff167f8c5be1e5ebec7d5bd14f71427d1e84f3dd0314c0f7b2291e5b200ac8c7c3b92560405160405180910390a45050565b60008061183183610fe8565b90508073ffffffffffffffffffffffffffffffffffffffff168473ffffffffffffffffffffffffffffffffffffffff161480611873575061187281856115ff565b5b806118b157508373ffffffffffffffffffffffffffffffffffffffff1661189984610a7e565b73ffffffffffffffffffffffffffffffffffffffff16145b91505092915050565b8273ffffffffffffffffffffffffffffffffffffffff166118da82610fe8565b73ffffffffffffffffffffffffffffffffffffffff1614611930576040517f08c379a000000000000000000000000000000000000000000000000000000000815260040161192790613f6c565b60405180910390fd5b600073ffffffffffffffffffffffffffffffffffffffff168273ffffffffffffffffffffffffffffffffffffffff160361199f576040517f08c379a000000000000000000000000000000000000000000000000000000000815260040161199690613ffe565b60405180910390fd5b6119aa83838361215e565b6119b560008261176c565b6001600360008573ffffffffffffffffffffffffffffffffffffffff1673ffffffffffffffffffffffffffffffffffffffff1681526020019081526020016000206000828254611a059190613aa8565b925050819055506001600360008473ffffffffffffffffffffffffffffffffffffffff1673ffffffffffffffffffffffffffffffffffffffff1681526020019081526020016000206000828254611a5c919061401e565b92505081905550816002600083815260200190815260200160002060006101000a81548173ffffffffffffffffffffffffffffffffffffffff021916908373ffffffffffffffffffffffffffffffffffffffff160217905550808273ffffffffffffffffffffffffffffffffffffffff168473ffffffffffffffffffffffffffffffffffffffff167fddf252ad1be2c89b69c2b068fc378daa952ba7f163c4a11628f55a4df523b3ef60405160405180910390a4611b1b83838361216e565b505050565b611b3181611b2c611764565b612173565b50565b611b3e82826112c1565b611c11576001600a600084815260200190815260200160002060000160008373ffffffffffffffffffffffffffffffffffffffff1673ffffffffffffffffffffffffffffffffffffffff16815260200190815260200160002060006101000a81548160ff021916908315150217905550611bb6611764565b73ffffffffffffffffffffffffffffffffffffffff168173ffffffffffffffffffffffffffffffffffffffff16837f2f8788117e7eff1d82e926ec794901d17c78024a50270940304540a733656f0d60405160405180910390a45b5050565b611c1f82826112c1565b15611cf3576000600a600084815260200190815260200160002060000160008373ffffffffffffffffffffffffffffffffffffffff1673ffffffffffffffffffffffffffffffffffffffff16815260200190815260200160002060006101000a81548160ff021916908315150217905550611c98611764565b73ffffffffffffffffffffffffffffffffffffffff168173ffffffffffffffffffffffffffffffffffffffff16837ff6391f5c32d9c69d2a47ea670b442974b53935d1edc7fd64eb21e047a839171b60405160405180910390a45b5050565b600081600001549050919050565b6001816000016000828254019250508190555050565b611d35828260405180602001604052806000815250612210565b5050565b8173ffffffffffffffffffffffffffffffffffffffff168373ffffffffffffffffffffffffffffffffffffffff1603611da7576040517f08c379a0000000000000000000000000000000000000000000000000000000008152600401611d9e9061409e565b60405180910390fd5b80600560008573ffffffffffffffffffffffffffffffffffffffff1673ffffffffffffffffffffffffffffffffffffffff16815260200190815260200160002060008473ffffffffffffffffffffffffffffffffffffffff1673ffffffffffffffffffffffffffffffffffffffff16815260200190815260200160002060006101000a81548160ff0219169083151502179055508173ffffffffffffffffffffffffffffffffffffffff168373ffffffffffffffffffffffffffffffffffffffff167f17307eab39ab6107e8899845ad3d59bd9653f200f220920489ca2b5937696c3183604051611e989190612e47565b60405180910390a3505050565b611eb08484846118ba565b611ebc8484848461226b565b611efb576040517f08c379a0000000000000000000000000000000000000000000000000000000008152600401611ef290614130565b60405180910390fd5b50505050565b606060405180602001604052806000815250905090565b606060008203611f5f576040518060400160405280600181526020017f30000000000000000000000000000000000000000000000000000000000000008152509050612073565b600082905060005b60008214611f91578080611f7a90614150565b915050600a82611f8a9190613848565b9150611f67565b60008167ffffffffffffffff811115611fad57611fac6132ed565b5b6040519080825280601f01601f191660200182016040528015611fdf5781602001600182028036833780820191505090505b5090505b6000851461206c57600182611ff89190613aa8565b9150600a856120079190614198565b6030612013919061401e565b60f81b81838151811061202957612028613b6e565b5b60200101907effffffffffffffffffffffffffffffffffffffffffffffffffffffffffffff1916908160001a905350600a856120659190613848565b9450611fe3565b8093505050505b919050565b60007f780e9d63000000000000000000000000000000000000000000000000000000007bffffffffffffffffffffffffffffffffffffffffffffffffffffffff1916827bffffffffffffffffffffffffffffffffffffffffffffffffffffffff191614806120eb57506120ea826123f2565b5b9050919050565b60008073ffffffffffffffffffffffffffffffffffffffff166002600084815260200190815260200160002060009054906101000a900473ffffffffffffffffffffffffffffffffffffffff1673ffffffffffffffffffffffffffffffffffffffff1614159050919050565b6121698383836124d4565b505050565b505050565b61217d82826112c1565b61220c576121a28173ffffffffffffffffffffffffffffffffffffffff1660146125e6565b6121b08360001c60206125e6565b6040516020016121c1929190614261565b6040516020818303038152906040526040517f08c379a00000000000000000000000000000000000000000000000000000000081526004016122039190612ef2565b60405180910390fd5b5050565b61221a8383612822565b612227600084848461226b565b612266576040517f08c379a000000000000000000000000000000000000000000000000000000000815260040161225d90614130565b60405180910390fd5b505050565b600061228c8473ffffffffffffffffffffffffffffffffffffffff166129fb565b156123e5578373ffffffffffffffffffffffffffffffffffffffff1663150b7a026122b5611764565b8786866040518563ffffffff1660e01b81526004016122d794939291906142f0565b6020604051808303816000875af192505050801561231357506040513d601f19601f820116820180604052508101906123109190614351565b60015b612395573d8060008114612343576040519150601f19603f3d011682016040523d82523d6000602084013e612348565b606091505b50600081510361238d576040517f08c379a000000000000000000000000000000000000000000000000000000000815260040161238490614130565b60405180910390fd5b805181602001fd5b63150b7a0260e01b7bffffffffffffffffffffffffffffffffffffffffffffffffffffffff1916817bffffffffffffffffffffffffffffffffffffffffffffffffffffffff1916149150506123ea565b600190505b949350505050565b60007f80ac58cd000000000000000000000000000000000000000000000000000000007bffffffffffffffffffffffffffffffffffffffffffffffffffffffff1916827bffffffffffffffffffffffffffffffffffffffffffffffffffffffff191614806124bd57507f5b5e139f000000000000000000000000000000000000000000000000000000007bffffffffffffffffffffffffffffffffffffffffffffffffffffffff1916827bffffffffffffffffffffffffffffffffffffffffffffffffffffffff1916145b806124cd57506124cc82612a1e565b5b9050919050565b6124df838383612a88565b600073ffffffffffffffffffffffffffffffffffffffff168373ffffffffffffffffffffffffffffffffffffffff16036125215761251c81612a8d565b612560565b8173ffffffffffffffffffffffffffffffffffffffff168373ffffffffffffffffffffffffffffffffffffffff161461255f5761255e8382612ad6565b5b5b600073ffffffffffffffffffffffffffffffffffffffff168273ffffffffffffffffffffffffffffffffffffffff16036125a25761259d81612c43565b6125e1565b8273ffffffffffffffffffffffffffffffffffffffff168273ffffffffffffffffffffffffffffffffffffffff16146125e0576125df8282612d14565b5b5b505050565b6060600060028360026125f991906138b0565b612603919061401e565b67ffffffffffffffff81111561261c5761261b6132ed565b5b6040519080825280601f01601f19166020018201604052801561264e5781602001600182028036833780820191505090505b5090507f30000000000000000000000000000000000000000000000000000000000000008160008151811061268657612685613b6e565b5b60200101907effffffffffffffffffffffffffffffffffffffffffffffffffffffffffffff1916908160001a9053507f7800000000000000000000000000000000000000000000000000000000000000816001815181106126ea576126e9613b6e565b5b60200101907effffffffffffffffffffffffffffffffffffffffffffffffffffffffffffff1916908160001a9053506000600184600261272a91906138b0565b612734919061401e565b90505b60018111156127d4577f3031323334353637383961626364656600000000000000000000000000000000600f86166010811061277657612775613b6e565b5b1a60f81b82828151811061278d5761278c613b6e565b5b60200101907effffffffffffffffffffffffffffffffffffffffffffffffffffffffffffff1916908160001a905350600485901c9450806127cd9061437e565b9050612737565b5060008414612818576040517f08c379a000000000000000000000000000000000000000000000000000000000815260040161280f906143f3565b60405180910390fd5b8091505092915050565b600073ffffffffffffffffffffffffffffffffffffffff168273ffffffffffffffffffffffffffffffffffffffff1603612891576040517f08c379a00000000000000000000000000000000000000000000000000000000081526004016128889061445f565b60405180910390fd5b61289a816120f2565b156128da576040517f08c379a00000000000000000000000000000000000000000000000000000000081526004016128d1906144cb565b60405180910390fd5b6128e66000838361215e565b6001600360008473ffffffffffffffffffffffffffffffffffffffff1673ffffffffffffffffffffffffffffffffffffffff1681526020019081526020016000206000828254612936919061401e565b92505081905550816002600083815260200190815260200160002060006101000a81548173ffffffffffffffffffffffffffffffffffffffff021916908373ffffffffffffffffffffffffffffffffffffffff160217905550808273ffffffffffffffffffffffffffffffffffffffff16600073ffffffffffffffffffffffffffffffffffffffff167fddf252ad1be2c89b69c2b068fc378daa952ba7f163c4a11628f55a4df523b3ef60405160405180910390a46129f76000838361216e565b5050565b6000808273ffffffffffffffffffffffffffffffffffffffff163b119050919050565b60007f01ffc9a7000000000000000000000000000000000000000000000000000000007bffffffffffffffffffffffffffffffffffffffffffffffffffffffff1916827bffffffffffffffffffffffffffffffffffffffffffffffffffffffff1916149050919050565b505050565b6008805490506009600083815260200190815260200160002081905550600881908060018154018082558091505060019003906000526020600020016000909190919091505550565b60006001612ae3846111fe565b612aed9190613aa8565b9050600060076000848152602001908152602001600020549050818114612bd2576000600660008673ffffffffffffffffffffffffffffffffffffffff1673ffffffffffffffffffffffffffffffffffffffff168152602001908152602001600020600084815260200190815260200160002054905080600660008773ffffffffffffffffffffffffffffffffffffffff1673ffffffffffffffffffffffffffffffffffffffff168152602001908152602001600020600084815260200190815260200160002081905550816007600083815260200190815260200160002081905550505b6007600084815260200190815260200160002060009055600660008573ffffffffffffffffffffffffffffffffffffffff1673ffffffffffffffffffffffffffffffffffffffff16815260200190815260200160002060008381526020019081526020016000206000905550505050565b60006001600880549050612c579190613aa8565b9050600060096000848152602001908152602001600020549050600060088381548110612c8757612c86613b6e565b5b906000526020600020015490508060088381548110612ca957612ca8613b6e565b5b906000526020600020018190555081600960008381526020019081526020016000208190555060096000858152602001908152602001600020600090556008805480612cf857612cf76144eb565b5b6001900381819060005260206000200160009055905550505050565b6000612d1f836111fe565b905081600660008573ffffffffffffffffffffffffffffffffffffffff1673ffffffffffffffffffffffffffffffffffffffff168152602001908152602001600020600083815260200190815260200160002081905550806007600084815260200190815260200160002081905550505050565b6000604051905090565b600080fd5b600080fd5b60007fffffffff0000000000000000000000000000000000000000000000000000000082169050919050565b612ddc81612da7565b8114612de757600080fd5b50565b600081359050612df981612dd3565b92915050565b600060208284031215612e1557612e14612d9d565b5b6000612e2384828501612dea565b91505092915050565b60008115159050919050565b612e4181612e2c565b82525050565b6000602082019050612e5c6000830184612e38565b92915050565b600081519050919050565b600082825260208201905092915050565b60005b83811015612e9c578082015181840152602081019050612e81565b60008484015250505050565b6000601f19601f8301169050919050565b6000612ec482612e62565b612ece8185612e6d565b9350612ede818560208601612e7e565b612ee781612ea8565b840191505092915050565b60006020820190508181036000830152612f0c8184612eb9565b905092915050565b6000819050919050565b612f2781612f14565b8114612f3257600080fd5b50565b600081359050612f4481612f1e565b92915050565b600060208284031215612f6057612f5f612d9d565b5b6000612f6e84828501612f35565b91505092915050565b600073ffffffffffffffffffffffffffffffffffffffff82169050919050565b6000612fa282612f77565b9050919050565b612fb281612f97565b82525050565b6000602082019050612fcd6000830184612fa9565b92915050565b612fdc81612f97565b8114612fe757600080fd5b50565b600081359050612ff981612fd3565b92915050565b6000806040838503121561301657613015612d9d565b5b600061302485828601612fea565b925050602061303585828601612f35565b9150509250929050565b60008060006060848603121561305857613057612d9d565b5b600061306686828701612f35565b935050602061307786828701612f35565b925050604061308886828701612f35565b9150509250925092565b61309b81612f14565b82525050565b60006080820190506130b66000830187613092565b6130c36020830186613092565b6130d06040830185613092565b6130dd6060830184612e38565b95945050505050565b60006040820190506130fb6000830185613092565b6131086020830184613092565b9392505050565b60006020820190506131246000830184613092565b92915050565b60008060006060848603121561314357613142612d9d565b5b600061315186828701612fea565b935050602061316286828701612fea565b925050604061317386828701612f35565b9150509250925092565b6000819050919050565b6131908161317d565b811461319b57600080fd5b50565b6000813590506131ad81613187565b92915050565b6000602082840312156131c9576131c8612d9d565b5b60006131d78482850161319e565b91505092915050565b6131e98161317d565b82525050565b600060208201905061320460008301846131e0565b92915050565b6000806040838503121561322157613220612d9d565b5b600061322f8582860161319e565b925050602061324085828601612fea565b9150509250929050565b6000602082840312156132605761325f612d9d565b5b600061326e84828501612fea565b91505092915050565b61328081612e2c565b811461328b57600080fd5b50565b60008135905061329d81613277565b92915050565b600080604083850312156132ba576132b9612d9d565b5b60006132c885828601612fea565b92505060206132d98582860161328e565b9150509250929050565b600080fd5b600080fd5b7f4e487b7100000000000000000000000000000000000000000000000000000000600052604160045260246000fd5b61332582612ea8565b810181811067ffffffffffffffff82111715613344576133436132ed565b5b80604052505050565b6000613357612d93565b9050613363828261331c565b919050565b600067ffffffffffffffff821115613383576133826132ed565b5b61338c82612ea8565b9050602081019050919050565b82818337600083830152505050565b60006133bb6133b684613368565b61334d565b9050828152602081018484840111156133d7576133d66132e8565b5b6133e2848285613399565b509392505050565b600082601f8301126133ff576133fe6132e3565b5b813561340f8482602086016133a8565b91505092915050565b6000806000806080858703121561343257613431612d9d565b5b600061344087828801612fea565b945050602061345187828801612fea565b935050604061346287828801612f35565b925050606085013567ffffffffffffffff81111561348357613482612da2565b5b61348f878288016133ea565b91505092959194509250565b600080604083850312156134b2576134b1612d9d565b5b60006134c085828601612fea565b92505060206134d185828601612fea565b9150509250929050565b7f4e487b7100000000000000000000000000000000000000000000000000000000600052602260045260246000fd5b6000600282049050600182168061352257607f821691505b602082108103613535576135346134db565b5b50919050565b7f4552433732313a20617070726f76616c20746f2063757272656e74206f776e6560008201527f7200000000000000000000000000000000000000000000000000000000000000602082015250565b6000613597602183612e6d565b91506135a28261353b565b604082019050919050565b600060208201905081810360008301526135c68161358a565b9050919050565b7f4552433732313a20617070726f76652063616c6c6572206973206e6f7420746f60008201527f6b656e206f776e6572206e6f7220617070726f76656420666f7220616c6c0000602082015250565b6000613629603e83612e6d565b9150613634826135cd565b604082019050919050565b600060208201905081810360008301526136588161361c565b9050919050565b7f4e487b7100000000000000000000000000000000000000000000000000000000600052601160045260246000fd5b60008160011c9050919050565b6000808291508390505b60018511156136e5578086048111156136c1576136c061365f565b5b60018516156136d05780820291505b80810290506136de8561368e565b94506136a5565b94509492505050565b6000826136fe57600190506137ba565b8161370c57600090506137ba565b8160018114613722576002811461372c5761375b565b60019150506137ba565b60ff84111561373e5761373d61365f565b5b8360020a9150848211156137555761375461365f565b5b506137ba565b5060208310610133831016604e8410600b84101617156137905782820a90508381111561378b5761378a61365f565b5b6137ba565b61379d848484600161369b565b925090508184048111156137b4576137b361365f565b5b81810290505b9392505050565b600060ff82169050919050565b60006137d982612f14565b91506137e4836137c1565b92506138117fffffffffffffffffffffffffffffffffffffffffffffffffffffffffffffffff84846136ee565b905092915050565b7f4e487b7100000000000000000000000000000000000000000000000000000000600052601260045260246000fd5b600061385382612f14565b915061385e83612f14565b92508261386e5761386d613819565b5b828204905092915050565b600060608201905061388e6000830186612fa9565b61389b6020830185613092565b6138a86040830184613092565b949350505050565b60006138bb82612f14565b91506138c683612f14565b92508282026138d481612f14565b915082820484148315176138eb576138ea61365f565b5b5092915050565b7f4552433732313a2063616c6c6572206973206e6f7420746f6b656e206f776e6560008201527f72206e6f7220617070726f766564000000000000000000000000000000000000602082015250565b600061394e602e83612e6d565b9150613959826138f2565b604082019050919050565b6000602082019050818103600083015261397d81613941565b9050919050565b7f455243373231456e756d657261626c653a206f776e657220696e646578206f7560008201527f74206f6620626f756e6473000000000000000000000000000000000000000000602082015250565b60006139e0602b83612e6d565b91506139eb82613984565b604082019050919050565b60006020820190508181036000830152613a0f816139d3565b9050919050565b7f416363657373436f6e74726f6c3a2063616e206f6e6c792072656e6f756e636560008201527f20726f6c657320666f722073656c660000000000000000000000000000000000602082015250565b6000613a72602f83612e6d565b9150613a7d82613a16565b604082019050919050565b60006020820190508181036000830152613aa181613a65565b9050919050565b6000613ab382612f14565b9150613abe83612f14565b9250828203905081811115613ad657613ad561365f565b5b92915050565b7f455243373231456e756d657261626c653a20676c6f62616c20696e646578206f60008201527f7574206f6620626f756e64730000000000000000000000000000000000000000602082015250565b6000613b38602c83612e6d565b9150613b4382613adc565b604082019050919050565b60006020820190508181036000830152613b6781613b2b565b9050919050565b7f4e487b7100000000000000000000000000000000000000000000000000000000600052603260045260246000fd5b7f4552433732313a20696e76616c696420746f6b656e2049440000000000000000600082015250565b6000613bd3601883612e6d565b9150613bde82613b9d565b602082019050919050565b60006020820190508181036000830152613c0281613bc6565b9050919050565b7f6e6f207072696365207361666564000000000000000000000000000000000000600082015250565b6000613c3f600e83612e6d565b9150613c4a82613c09565b602082019050919050565b60006020820190508181036000830152613c6e81613c32565b9050919050565b7f76616c75652062656c6f77207361666564207072696365000000000000000000600082015250565b6000613cab601783612e6d565b9150613cb682613c75565b602082019050919050565b60006020820190508181036000830152613cda81613c9e565b9050919050565b7f746f74616c20737570706c792065786365656465642c206e6f206d6f7265207460008201527f6f6b656e7320617661696c61626c650000000000000000000000000000000000602082015250565b6000613d3d602f83612e6d565b9150613d4882613ce1565b604082019050919050565b60006020820190508181036000830152613d6c81613d30565b9050919050565b6000604082019050613d886000830185612fa9565b613d956020830184613092565b9392505050565b7f4552433732313a2061646472657373207a65726f206973206e6f74206120766160008201527f6c6964206f776e65720000000000000000000000000000000000000000000000602082015250565b6000613df8602983612e6d565b9150613e0382613d9c565b604082019050919050565b60006020820190508181036000830152613e2781613deb565b9050919050565b7f4e6f205072696365207365740000000000000000000000000000000000000000600082015250565b6000613e64600c83612e6d565b9150613e6f82613e2e565b602082019050919050565b60006020820190508181036000830152613e9381613e57565b9050919050565b600081905092915050565b6000613eb082612e62565b613eba8185613e9a565b9350613eca818560208601612e7e565b80840191505092915050565b6000613ee28285613ea5565b9150613eee8284613ea5565b91508190509392505050565b7f4552433732313a207472616e736665722066726f6d20696e636f72726563742060008201527f6f776e6572000000000000000000000000000000000000000000000000000000602082015250565b6000613f56602583612e6d565b9150613f6182613efa565b604082019050919050565b60006020820190508181036000830152613f8581613f49565b9050919050565b7f4552433732313a207472616e7366657220746f20746865207a65726f2061646460008201527f7265737300000000000000000000000000000000000000000000000000000000602082015250565b6000613fe8602483612e6d565b9150613ff382613f8c565b604082019050919050565b6000602082019050818103600083015261401781613fdb565b9050919050565b600061402982612f14565b915061403483612f14565b925082820190508082111561404c5761404b61365f565b5b92915050565b7f4552433732313a20617070726f766520746f2063616c6c657200000000000000600082015250565b6000614088601983612e6d565b915061409382614052565b602082019050919050565b600060208201905081810360008301526140b78161407b565b9050919050565b7f4552433732313a207472616e7366657220746f206e6f6e20455243373231526560008201527f63656976657220696d706c656d656e7465720000000000000000000000000000602082015250565b600061411a603283612e6d565b9150614125826140be565b604082019050919050565b600060208201905081810360008301526141498161410d565b9050919050565b600061415b82612f14565b91507fffffffffffffffffffffffffffffffffffffffffffffffffffffffffffffffff820361418d5761418c61365f565b5b600182019050919050565b60006141a382612f14565b91506141ae83612f14565b9250826141be576141bd613819565b5b828206905092915050565b7f416363657373436f6e74726f6c3a206163636f756e7420000000000000000000600082015250565b60006141ff601783613e9a565b915061420a826141c9565b601782019050919050565b7f206973206d697373696e6720726f6c6520000000000000000000000000000000600082015250565b600061424b601183613e9a565b915061425682614215565b601182019050919050565b600061426c826141f2565b91506142788285613ea5565b91506142838261423e565b915061428f8284613ea5565b91508190509392505050565b600081519050919050565b600082825260208201905092915050565b60006142c28261429b565b6142cc81856142a6565b93506142dc818560208601612e7e565b6142e581612ea8565b840191505092915050565b60006080820190506143056000830187612fa9565b6143126020830186612fa9565b61431f6040830185613092565b818103606083015261433181846142b7565b905095945050505050565b60008151905061434b81612dd3565b92915050565b60006020828403121561436757614366612d9d565b5b60006143758482850161433c565b91505092915050565b600061438982612f14565b91506000820361439c5761439b61365f565b5b600182039050919050565b7f537472696e67733a20686578206c656e67746820696e73756666696369656e74600082015250565b60006143dd602083612e6d565b91506143e8826143a7565b602082019050919050565b6000602082019050818103600083015261440c816143d0565b9050919050565b7f4552433732313a206d696e7420746f20746865207a65726f2061646472657373600082015250565b6000614449602083612e6d565b915061445482614413565b602082019050919050565b600060208201905081810360008301526144788161443c565b9050919050565b7f4552433732313a20746f6b656e20616c7265616479206d696e74656400000000600082015250565b60006144b5601c83612e6d565b91506144c08261447f565b602082019050919050565b600060208201905081810360008301526144e4816144a8565b9050919050565b7f4e487b7100000000000000000000000000000000000000000000000000000000600052603160045260246000fdfea264697066735822122048dfed2ee525592b869271a20abe426002562805f7a82054a191b455f0ecd78164736f6c63430008110033",
  "linkReferences": {},
  "deployedLinkReferences": {}
}