{
  "_format": "hh-sol-artifact-1",
  "contractName": "DynamicPriceToken",
  "sourceName": "contracts/DynamicPrice.sol",
  "abi": [
    {
      "inputs": [],
      "stateMutability": "nonpayable",
      "type": "constructor"
    },
    {
      "anonymous": false,
      "inputs": [
        {
          "indexed": true,
          "internalType": "address",
          "name": "owner",
          "type": "address"
        },
        {
          "indexed": true,
          "internalType": "address",
          "name": "approved",
          "type": "address"
        },
        {
          "indexed": true,
          "internalType": "uint256",
          "name": "tokenId",
          "type": "uint256"
        }
      ],
      "name": "Approval",
      "type": "event"
    },
    {
      "anonymous": false,
      "inputs": [
        {
          "indexed": true,
          "internalType": "address",
          "name": "owner",
          "type": "address"
        },
        {
          "indexed": true,
          "internalType": "address",
          "name": "operator",
          "type": "address"
        },
        {
          "indexed": false,
          "internalType": "bool",
          "name": "approved",
          "type": "bool"
        }
      ],
      "name": "ApprovalForAll",
      "type": "event"
    },
    {
      "anonymous": false,
      "inputs": [
        {
          "indexed": true,
          "internalType": "bytes32",
          "name": "role",
          "type": "bytes32"
        },
        {
          "indexed": true,
          "internalType": "bytes32",
          "name": "previousAdminRole",
          "type": "bytes32"
        },
        {
          "indexed": true,
          "internalType": "bytes32",
          "name": "newAdminRole",
          "type": "bytes32"
        }
      ],
      "name": "RoleAdminChanged",
      "type": "event"
    },
    {
      "anonymous": false,
      "inputs": [
        {
          "indexed": true,
          "internalType": "bytes32",
          "name": "role",
          "type": "bytes32"
        },
        {
          "indexed": true,
          "internalType": "address",
          "name": "account",
          "type": "address"
        },
        {
          "indexed": true,
          "internalType": "address",
          "name": "sender",
          "type": "address"
        }
      ],
      "name": "RoleGranted",
      "type": "event"
    },
    {
      "anonymous": false,
      "inputs": [
        {
          "indexed": true,
          "internalType": "bytes32",
          "name": "role",
          "type": "bytes32"
        },
        {
          "indexed": true,
          "internalType": "address",
          "name": "account",
          "type": "address"
        },
        {
          "indexed": true,
          "internalType": "address",
          "name": "sender",
          "type": "address"
        }
      ],
      "name": "RoleRevoked",
      "type": "event"
    },
    {
      "anonymous": false,
      "inputs": [
        {
          "indexed": true,
          "internalType": "address",
          "name": "from",
          "type": "address"
        },
        {
          "indexed": true,
          "internalType": "address",
          "name": "to",
          "type": "address"
        },
        {
          "indexed": true,
          "internalType": "uint256",
          "name": "tokenId",
          "type": "uint256"
        }
      ],
      "name": "Transfer",
      "type": "event"
    },
    {
      "inputs": [],
      "name": "DEFAULT_ADMIN_ROLE",
      "outputs": [
        {
          "internalType": "bytes32",
          "name": "",
          "type": "bytes32"
        }
      ],
      "stateMutability": "view",
      "type": "function"
    },
    {
      "inputs": [],
      "name": "MINTER_ROLE",
      "outputs": [
        {
          "internalType": "bytes32",
          "name": "",
          "type": "bytes32"
        }
      ],
      "stateMutability": "view",
      "type": "function"
    },
    {
      "inputs": [],
      "name": "OFFERER_ROLE",
      "outputs": [
        {
          "internalType": "bytes32",
          "name": "",
          "type": "bytes32"
        }
      ],
      "stateMutability": "view",
      "type": "function"
    },
    {
      "inputs": [
        {
          "internalType": "address",
          "name": "to",
          "type": "address"
        },
        {
          "internalType": "uint256",
          "name": "tokenId",
          "type": "uint256"
        }
      ],
      "name": "approve",
      "outputs": [],
      "stateMutability": "nonpayable",
      "type": "function"
    },
    {
      "inputs": [
        {
          "internalType": "address",
          "name": "owner",
          "type": "address"
        }
      ],
      "name": "balanceOf",
      "outputs": [
        {
          "internalType": "uint256",
          "name": "",
          "type": "uint256"
        }
      ],
      "stateMutability": "view",
      "type": "function"
    },
    {
      "inputs": [],
      "name": "calculateDynamicPrice",
      "outputs": [
        {
          "internalType": "uint256",
          "name": "",
          "type": "uint256"
        },
        {
          "internalType": "uint256",
          "name": "",
          "type": "uint256"
        }
      ],
      "stateMutability": "nonpayable",
      "type": "function"
    },
    {
      "inputs": [],
      "name": "calculateSale",
      "outputs": [
        {
          "internalType": "uint256",
          "name": "",
          "type": "uint256"
        },
        {
          "internalType": "uint256",
          "name": "",
          "type": "uint256"
        }
      ],
      "stateMutability": "nonpayable",
      "type": "function"
    },
    {
      "inputs": [],
      "name": "currentTime",
      "outputs": [
        {
          "internalType": "uint256",
          "name": "",
          "type": "uint256"
        }
      ],
      "stateMutability": "view",
      "type": "function"
    },
    {
      "inputs": [],
      "name": "durationTime",
      "outputs": [
        {
          "internalType": "uint256",
          "name": "",
          "type": "uint256"
        }
      ],
      "stateMutability": "view",
      "type": "function"
    },
    {
      "inputs": [],
      "name": "dynamicPrice",
      "outputs": [
        {
          "internalType": "uint256",
          "name": "",
          "type": "uint256"
        }
      ],
      "stateMutability": "view",
      "type": "function"
    },
    {
      "inputs": [
        {
          "internalType": "uint256",
          "name": "tokenId",
          "type": "uint256"
        }
      ],
      "name": "getApproved",
      "outputs": [
        {
          "internalType": "address",
          "name": "",
          "type": "address"
        }
      ],
      "stateMutability": "view",
      "type": "function"
    },
    {
      "inputs": [],
      "name": "getLastPrice",
      "outputs": [
        {
          "internalType": "uint256",
          "name": "",
          "type": "uint256"
        }
      ],
      "stateMutability": "view",
      "type": "function"
    },
    {
      "inputs": [
        {
          "internalType": "bytes32",
          "name": "role",
          "type": "bytes32"
        }
      ],
      "name": "getRoleAdmin",
      "outputs": [
        {
          "internalType": "bytes32",
          "name": "",
          "type": "bytes32"
        }
      ],
      "stateMutability": "view",
      "type": "function"
    },
    {
      "inputs": [
        {
          "internalType": "bytes32",
          "name": "role",
          "type": "bytes32"
        },
        {
          "internalType": "address",
          "name": "account",
          "type": "address"
        }
      ],
      "name": "grantRole",
      "outputs": [],
      "stateMutability": "nonpayable",
      "type": "function"
    },
    {
      "inputs": [
        {
          "internalType": "bytes32",
          "name": "role",
          "type": "bytes32"
        },
        {
          "internalType": "address",
          "name": "account",
          "type": "address"
        }
      ],
      "name": "hasRole",
      "outputs": [
        {
          "internalType": "bool",
          "name": "",
          "type": "bool"
        }
      ],
      "stateMutability": "view",
      "type": "function"
    },
    {
      "inputs": [
        {
          "internalType": "uint256",
          "name": "_maxSupply",
          "type": "uint256"
        },
        {
          "internalType": "uint256",
          "name": "_offeringPrice",
          "type": "uint256"
        },
        {
          "internalType": "uint256",
          "name": "_durationTime",
          "type": "uint256"
        }
      ],
      "name": "initOffering",
      "outputs": [
        {
          "internalType": "uint256",
          "name": "",
          "type": "uint256"
        },
        {
          "internalType": "uint256",
          "name": "",
          "type": "uint256"
        },
        {
          "internalType": "uint256",
          "name": "",
          "type": "uint256"
        },
        {
          "internalType": "bool",
          "name": "",
          "type": "bool"
        }
      ],
      "stateMutability": "nonpayable",
      "type": "function"
    },
    {
      "inputs": [
        {
          "internalType": "address",
          "name": "owner",
          "type": "address"
        },
        {
          "internalType": "address",
          "name": "operator",
          "type": "address"
        }
      ],
      "name": "isApprovedForAll",
      "outputs": [
        {
          "internalType": "bool",
          "name": "",
          "type": "bool"
        }
      ],
      "stateMutability": "view",
      "type": "function"
    },
    {
      "inputs": [],
      "name": "maxSupply",
      "outputs": [
        {
          "internalType": "uint256",
          "name": "",
          "type": "uint256"
        }
      ],
      "stateMutability": "view",
      "type": "function"
    },
    {
      "inputs": [],
      "name": "maxSupply2",
      "outputs": [
        {
          "internalType": "uint256",
          "name": "",
          "type": "uint256"
        }
      ],
      "stateMutability": "view",
      "type": "function"
    },
    {
      "inputs": [],
      "name": "name",
      "outputs": [
        {
          "internalType": "string",
          "name": "",
          "type": "string"
        }
      ],
      "stateMutability": "view",
      "type": "function"
    },
    {
      "inputs": [],
      "name": "offeringPrice",
      "outputs": [
        {
          "internalType": "uint256",
          "name": "",
          "type": "uint256"
        }
      ],
      "stateMutability": "view",
      "type": "function"
    },
    {
      "inputs": [
        {
          "internalType": "uint256",
          "name": "tokenId",
          "type": "uint256"
        }
      ],
      "name": "ownerOf",
      "outputs": [
        {
          "internalType": "address",
          "name": "",
          "type": "address"
        }
      ],
      "stateMutability": "view",
      "type": "function"
    },
    {
      "inputs": [],
      "name": "plannedSale",
      "outputs": [
        {
          "internalType": "uint256",
          "name": "",
          "type": "uint256"
        }
      ],
      "stateMutability": "view",
      "type": "function"
    },
    {
      "inputs": [],
      "name": "priceKoefficient",
      "outputs": [
        {
          "internalType": "uint256",
          "name": "",
          "type": "uint256"
        }
      ],
      "stateMutability": "view",
      "type": "function"
    },
    {
      "inputs": [
        {
          "internalType": "bytes32",
          "name": "role",
          "type": "bytes32"
        },
        {
          "internalType": "address",
          "name": "account",
          "type": "address"
        }
      ],
      "name": "renounceRole",
      "outputs": [],
      "stateMutability": "nonpayable",
      "type": "function"
    },
    {
      "inputs": [
        {
          "internalType": "bytes32",
          "name": "role",
          "type": "bytes32"
        },
        {
          "internalType": "address",
          "name": "account",
          "type": "address"
        }
      ],
      "name": "revokeRole",
      "outputs": [],
      "stateMutability": "nonpayable",
      "type": "function"
    },
    {
      "inputs": [
        {
          "internalType": "address",
          "name": "to",
          "type": "address"
        }
      ],
      "name": "safeMint",
      "outputs": [],
      "stateMutability": "payable",
      "type": "function"
    },
    {
      "inputs": [
        {
          "internalType": "address",
          "name": "from",
          "type": "address"
        },
        {
          "internalType": "address",
          "name": "to",
          "type": "address"
        },
        {
          "internalType": "uint256",
          "name": "tokenId",
          "type": "uint256"
        }
      ],
      "name": "safeTransferFrom",
      "outputs": [],
      "stateMutability": "nonpayable",
      "type": "function"
    },
    {
      "inputs": [
        {
          "internalType": "address",
          "name": "from",
          "type": "address"
        },
        {
          "internalType": "address",
          "name": "to",
          "type": "address"
        },
        {
          "internalType": "uint256",
          "name": "tokenId",
          "type": "uint256"
        },
        {
          "internalType": "bytes",
          "name": "data",
          "type": "bytes"
        }
      ],
      "name": "safeTransferFrom",
      "outputs": [],
      "stateMutability": "nonpayable",
      "type": "function"
    },
    {
      "inputs": [
        {
          "internalType": "uint256",
          "name": "_currentDynamicPrice",
          "type": "uint256"
        }
      ],
      "name": "safeYourPrice",
      "outputs": [
        {
          "internalType": "uint256",
          "name": "",
          "type": "uint256"
        }
      ],
      "stateMutability": "nonpayable",
      "type": "function"
    },
    {
      "inputs": [],
      "name": "safedPrice",
      "outputs": [
        {
          "internalType": "uint256",
          "name": "",
          "type": "uint256"
        }
      ],
      "stateMutability": "view",
      "type": "function"
    },
    {
      "inputs": [],
      "name": "safedPriceCalc",
      "outputs": [
        {
          "internalType": "bool",
          "name": "",
          "type": "bool"
        }
      ],
      "stateMutability": "view",
      "type": "function"
    },
    {
      "inputs": [
        {
          "internalType": "address",
          "name": "operator",
          "type": "address"
        },
        {
          "internalType": "bool",
          "name": "approved",
          "type": "bool"
        }
      ],
      "name": "setApprovalForAll",
      "outputs": [],
      "stateMutability": "nonpayable",
      "type": "function"
    },
    {
      "inputs": [],
      "name": "startTime",
      "outputs": [
        {
          "internalType": "uint256",
          "name": "",
          "type": "uint256"
        }
      ],
      "stateMutability": "view",
      "type": "function"
    },
    {
      "inputs": [],
      "name": "supplyPerUnit",
      "outputs": [
        {
          "internalType": "uint256",
          "name": "",
          "type": "uint256"
        }
      ],
      "stateMutability": "view",
      "type": "function"
    },
    {
      "inputs": [
        {
          "internalType": "bytes4",
          "name": "interfaceId",
          "type": "bytes4"
        }
      ],
      "name": "supportsInterface",
      "outputs": [
        {
          "internalType": "bool",
          "name": "",
          "type": "bool"
        }
      ],
      "stateMutability": "view",
      "type": "function"
    },
    {
      "inputs": [],
      "name": "symbol",
      "outputs": [
        {
          "internalType": "string",
          "name": "",
          "type": "string"
        }
      ],
      "stateMutability": "view",
      "type": "function"
    },
    {
      "inputs": [
        {
          "internalType": "uint256",
          "name": "index",
          "type": "uint256"
        }
      ],
      "name": "tokenByIndex",
      "outputs": [
        {
          "internalType": "uint256",
          "name": "",
          "type": "uint256"
        }
      ],
      "stateMutability": "view",
      "type": "function"
    },
    {
      "inputs": [],
      "name": "tokenCounter2",
      "outputs": [
        {
          "internalType": "uint256",
          "name": "",
          "type": "uint256"
        }
      ],
      "stateMutability": "view",
      "type": "function"
    },
    {
      "inputs": [
        {
          "internalType": "address",
          "name": "owner",
          "type": "address"
        },
        {
          "internalType": "uint256",
          "name": "index",
          "type": "uint256"
        }
      ],
      "name": "tokenOfOwnerByIndex",
      "outputs": [
        {
          "internalType": "uint256",
          "name": "",
          "type": "uint256"
        }
      ],
      "stateMutability": "view",
      "type": "function"
    },
    {
      "inputs": [
        {
          "internalType": "uint256",
          "name": "tokenId",
          "type": "uint256"
        }
      ],
      "name": "tokenURI",
      "outputs": [
        {
          "internalType": "string",
          "name": "",
          "type": "string"
        }
      ],
      "stateMutability": "view",
      "type": "function"
    },
    {
      "inputs": [],
      "name": "totalSupply",
      "outputs": [
        {
          "internalType": "uint256",
          "name": "",
          "type": "uint256"
        }
      ],
      "stateMutability": "view",
      "type": "function"
    },
    {
      "inputs": [
        {
          "internalType": "address",
          "name": "from",
          "type": "address"
        },
        {
          "internalType": "address",
          "name": "to",
          "type": "address"
        },
        {
          "internalType": "uint256",
          "name": "tokenId",
          "type": "uint256"
        }
      ],
      "name": "transferFrom",
      "outputs": [],
      "stateMutability": "nonpayable",
      "type": "function"
    }
  ],
  "bytecode": "0x60806040526000601160006101000a81548160ff0219169083151502179055503480156200002c57600080fd5b506040518060400160405280601181526020017f44796e616d69635072696365546f6b656e0000000000000000000000000000008152506040518060400160405280600381526020017f44505400000000000000000000000000000000000000000000000000000000008152508160009081620000aa919062000538565b508060019081620000bc919062000538565b505050620000d46000801b336200015960201b60201c565b620001067f9f2df0fed2c77648de5860a4cc508cd0818c85b8b8a1ab4ceeef8d981c8956a6336200015960201b60201c565b620001387f80cf436e8c0e82a48cfeb5bfead0f114e29052f44c57aa6f6d987fb8edf619b3336200015960201b60201c565b6000601660006101000a81548160ff0219169083151502179055506200061f565b6200016b82826200024b60201b60201c565b62000247576001600a600084815260200190815260200160002060000160008373ffffffffffffffffffffffffffffffffffffffff1673ffffffffffffffffffffffffffffffffffffffff16815260200190815260200160002060006101000a81548160ff021916908315150217905550620001ec620002b660201b60201c565b73ffffffffffffffffffffffffffffffffffffffff168173ffffffffffffffffffffffffffffffffffffffff16837f2f8788117e7eff1d82e926ec794901d17c78024a50270940304540a733656f0d60405160405180910390a45b5050565b6000600a600084815260200190815260200160002060000160008373ffffffffffffffffffffffffffffffffffffffff1673ffffffffffffffffffffffffffffffffffffffff16815260200190815260200160002060009054906101000a900460ff16905092915050565b600033905090565b600081519050919050565b7f4e487b7100000000000000000000000000000000000000000000000000000000600052604160045260246000fd5b7f4e487b7100000000000000000000000000000000000000000000000000000000600052602260045260246000fd5b600060028204905060018216806200034057607f821691505b602082108103620003565762000355620002f8565b5b50919050565b60008190508160005260206000209050919050565b60006020601f8301049050919050565b600082821b905092915050565b600060088302620003c07fffffffffffffffffffffffffffffffffffffffffffffffffffffffffffffffff8262000381565b620003cc868362000381565b95508019841693508086168417925050509392505050565b6000819050919050565b6000819050919050565b600062000419620004136200040d84620003e4565b620003ee565b620003e4565b9050919050565b6000819050919050565b6200043583620003f8565b6200044d620004448262000420565b8484546200038e565b825550505050565b600090565b6200046462000455565b620004718184846200042a565b505050565b5b8181101562000499576200048d6000826200045a565b60018101905062000477565b5050565b601f821115620004e857620004b2816200035c565b620004bd8462000371565b81016020851015620004cd578190505b620004e5620004dc8562000371565b83018262000476565b50505b505050565b600082821c905092915050565b60006200050d60001984600802620004ed565b1980831691505092915050565b6000620005288383620004fa565b9150826002028217905092915050565b6200054382620002be565b67ffffffffffffffff8111156200055f576200055e620002c9565b5b6200056b825462000327565b620005788282856200049d565b600060209050601f831160018114620005b057600084156200059b578287015190505b620005a785826200051a565b86555062000617565b601f198416620005c0866200035c565b60005b82811015620005ea57848901518255600182019150602085019450602081019050620005c3565b868310156200060a578489015162000606601f891682620004fa565b8355505b6001600288020188555050505b505050505050565b61452f806200062f6000396000f3fe60806040526004361061025c5760003560e01c80636b0891d911610144578063bdd742f5116100b6578063d5abeb011161007a578063d5abeb0114610944578063d8cf24fd1461096f578063e28936b11461099a578063e985e9c5146109c5578063f8b75fb514610a02578063fe9f2a1014610a2d5761025c565b8063bdd742f51461085d578063c87b56dd14610888578063d18e81b3146108c5578063d5391393146108f0578063d547741f1461091b5761025c565b806394e6cfab1161010857806394e6cfab1461074d57806395d89b411461077857806399950574146107a3578063a217fddf146107e0578063a22cb4651461080b578063b88d4fde146108345761025c565b80636b0891d91461065257806370a082311461067d57806378e97925146106ba5780637e7603e8146106e557806391d14854146107105761025c565b80632db37089116101dd5780633d06a969116101a15780633d06a9691461053d57806340d097c31461056857806342842e0e146105845780634f6ccce7146105ad57806350dae547146105ea5780636352211e146106155761025c565b80632db37089146104575780632f2ff15d146104825780632f745c59146104ab57806336568abe146104e8578063386a15cd146105115761025c565b80631722205b116102245780631722205b1461036f57806318160ddd1461039b57806321933916146103c657806323b872dd146103f1578063248a9ca31461041a5761025c565b806301ffc9a71461026157806306fdde031461029e578063081812fc146102c9578063095ea7b3146103065780630f745ada1461032f575b600080fd5b34801561026d57600080fd5b5061028860048036038101906102839190612e3e565b610a58565b6040516102959190612e86565b60405180910390f35b3480156102aa57600080fd5b506102b3610a6a565b6040516102c09190612f31565b60405180910390f35b3480156102d557600080fd5b506102f060048036038101906102eb9190612f89565b610afc565b6040516102fd9190612ff7565b60405180910390f35b34801561031257600080fd5b5061032d6004803603810190610328919061303e565b610b42565b005b34801561033b57600080fd5b506103566004803603810190610351919061307e565b610c59565b60405161036694939291906130e0565b60405180910390f35b34801561037b57600080fd5b50610384610ceb565b604051610392929190613125565b60405180910390f35b3480156103a757600080fd5b506103b0610d6d565b6040516103bd919061314e565b60405180910390f35b3480156103d257600080fd5b506103db610d7a565b6040516103e8919061314e565b60405180910390f35b3480156103fd57600080fd5b5061041860048036038101906104139190613169565b610d80565b005b34801561042657600080fd5b50610441600480360381019061043c91906131f2565b610de0565b60405161044e919061322e565b60405180910390f35b34801561046357600080fd5b5061046c610e00565b604051610479919061314e565b60405180910390f35b34801561048e57600080fd5b506104a960048036038101906104a49190613249565b610e06565b005b3480156104b757600080fd5b506104d260048036038101906104cd919061303e565b610e27565b6040516104df919061314e565b60405180910390f35b3480156104f457600080fd5b5061050f600480360381019061050a9190613249565b610ecc565b005b34801561051d57600080fd5b50610526610f4f565b604051610534929190613125565b60405180910390f35b34801561054957600080fd5b50610552610f8a565b60405161055f919061314e565b60405180910390f35b610582600480360381019061057d9190613289565b610f90565b005b34801561059057600080fd5b506105ab60048036038101906105a69190613169565b6110e2565b005b3480156105b957600080fd5b506105d460048036038101906105cf9190612f89565b611102565b6040516105e1919061314e565b60405180910390f35b3480156105f657600080fd5b506105ff611173565b60405161060c919061314e565b60405180910390f35b34801561062157600080fd5b5061063c60048036038101906106379190612f89565b611179565b6040516106499190612ff7565b60405180910390f35b34801561065e57600080fd5b5061066761122a565b604051610674919061314e565b60405180910390f35b34801561068957600080fd5b506106a4600480360381019061069f9190613289565b611230565b6040516106b1919061314e565b60405180910390f35b3480156106c657600080fd5b506106cf6112e7565b6040516106dc919061314e565b60405180910390f35b3480156106f157600080fd5b506106fa6112ed565b604051610707919061314e565b60405180910390f35b34801561071c57600080fd5b5061073760048036038101906107329190613249565b6112f3565b6040516107449190612e86565b60405180910390f35b34801561075957600080fd5b5061076261135e565b60405161076f919061322e565b60405180910390f35b34801561078457600080fd5b5061078d611382565b60405161079a9190612f31565b60405180910390f35b3480156107af57600080fd5b506107ca60048036038101906107c59190612f89565b611414565b6040516107d7919061314e565b60405180910390f35b3480156107ec57600080fd5b506107f5611484565b604051610802919061322e565b60405180910390f35b34801561081757600080fd5b50610832600480360381019061082d91906132e2565b61148b565b005b34801561084057600080fd5b5061085b60048036038101906108569190613457565b6114a1565b005b34801561086957600080fd5b50610872611503565b60405161087f919061314e565b60405180910390f35b34801561089457600080fd5b506108af60048036038101906108aa9190612f89565b611509565b6040516108bc9190612f31565b60405180910390f35b3480156108d157600080fd5b506108da611571565b6040516108e7919061314e565b60405180910390f35b3480156108fc57600080fd5b50610905611577565b604051610912919061322e565b60405180910390f35b34801561092757600080fd5b50610942600480360381019061093d9190613249565b61159b565b005b34801561095057600080fd5b506109596115bc565b604051610966919061314e565b60405180910390f35b34801561097b57600080fd5b506109846115c2565b604051610991919061314e565b60405180910390f35b3480156109a657600080fd5b506109af61162b565b6040516109bc9190612e86565b60405180910390f35b3480156109d157600080fd5b506109ec60048036038101906109e791906134da565b61163e565b6040516109f99190612e86565b60405180910390f35b348015610a0e57600080fd5b50610a176116d2565b604051610a24919061314e565b60405180910390f35b348015610a3957600080fd5b50610a426116d8565b604051610a4f919061314e565b60405180910390f35b6000610a63826116de565b9050919050565b606060008054610a7990613549565b80601f0160208091040260200160405190810160405280929190818152602001828054610aa590613549565b8015610af25780601f10610ac757610100808354040283529160200191610af2565b820191906000526020600020905b815481529060010190602001808311610ad557829003601f168201915b5050505050905090565b6000610b0782611758565b6004600083815260200190815260200160002060009054906101000a900473ffffffffffffffffffffffffffffffffffffffff169050919050565b6000610b4d82611179565b90508073ffffffffffffffffffffffffffffffffffffffff168373ffffffffffffffffffffffffffffffffffffffff1603610bbd576040517f08c379a0000000000000000000000000000000000000000000000000000000008152600401610bb4906135ec565b60405180910390fd5b8073ffffffffffffffffffffffffffffffffffffffff16610bdc6117a3565b73ffffffffffffffffffffffffffffffffffffffff161480610c0b5750610c0a81610c056117a3565b61163e565b5b610c4a576040517f08c379a0000000000000000000000000000000000000000000000000000000008152600401610c419061367e565b60405180910390fd5b610c5483836117ab565b505050565b60008060008042600c81905550601287610c73919061380d565b600e81905550600e54600d8190555085600f81905550846010819055506001601160006101000a81548160ff021916908315150217905550601054600d54610cbb9190613887565b601281905550601254600f54600c54601160009054906101000a900460ff16935093509350935093509350935093565b600080610cf6610f4f565b5050600b60000154601781905550670de0b6b3a7640000601754610d1a91906138b8565b601881905550601454670de0b6b3a7640000601854610d3991906138b8565b610d439190613887565b601981905550600f54601954610d5991906138b8565b601a81905550601854601954915091509091565b6000600880549050905090565b60185481565b610d91610d8b6117a3565b82611864565b610dd0576040517f08c379a0000000000000000000000000000000000000000000000000000000008152600401610dc79061396c565b60405180910390fd5b610ddb8383836118f9565b505050565b6000600a6000838152602001908152602001600020600101549050919050565b60145481565b610e0f82610de0565b610e1881611b5f565b610e228383611b73565b505050565b6000610e3283611230565b8210610e73576040517f08c379a0000000000000000000000000000000000000000000000000000000008152600401610e6a906139fe565b60405180910390fd5b600660008473ffffffffffffffffffffffffffffffffffffffff1673ffffffffffffffffffffffffffffffffffffffff168152602001908152602001600020600083815260200190815260200160002054905092915050565b610ed46117a3565b73ffffffffffffffffffffffffffffffffffffffff168173ffffffffffffffffffffffffffffffffffffffff1614610f41576040517f08c379a0000000000000000000000000000000000000000000000000000000008152600401610f3890613a90565b60405180910390fd5b610f4b8282611c54565b5050565b600080600c5442610f609190613ab0565b601381905550601354601254610f7691906138b8565b601481905550601354601454915091509091565b601a5481565b7f9f2df0fed2c77648de5860a4cc508cd0818c85b8b8a1ab4ceeef8d981c8956a6610fba81611b5f565b60011515601660009054906101000a900460ff16151514611010576040517f08c379a000000000000000000000000000000000000000000000000000000000815260040161100790613b30565b60405180910390fd5b601554341015611055576040517f08c379a000000000000000000000000000000000000000000000000000000000815260040161104c90613b9c565b60405180910390fd5b600d54611060610d6d565b106110a0576040517f08c379a000000000000000000000000000000000000000000000000000000000815260040161109790613c2e565b60405180910390fd5b60006110ac600b611d36565b90506110b8600b611d44565b6110c28382611d5a565b6000601660006101000a81548160ff021916908315150217905550505050565b6110fd838383604051806020016040528060008152506114a1565b505050565b600061110c610d6d565b821061114d576040517f08c379a000000000000000000000000000000000000000000000000000000000815260040161114490613cc0565b60405180910390fd5b6008828154811061116157611160613ce0565b5b90600052602060002001549050919050565b600e5481565b6000806002600084815260200190815260200160002060009054906101000a900473ffffffffffffffffffffffffffffffffffffffff169050600073ffffffffffffffffffffffffffffffffffffffff168173ffffffffffffffffffffffffffffffffffffffff1603611221576040517f08c379a000000000000000000000000000000000000000000000000000000000815260040161121890613d5b565b60405180910390fd5b80915050919050565b60155481565b60008073ffffffffffffffffffffffffffffffffffffffff168273ffffffffffffffffffffffffffffffffffffffff16036112a0576040517f08c379a000000000000000000000000000000000000000000000000000000000815260040161129790613ded565b60405180910390fd5b600360008373ffffffffffffffffffffffffffffffffffffffff1673ffffffffffffffffffffffffffffffffffffffff168152602001908152602001600020549050919050565b600c5481565b60125481565b6000600a600084815260200190815260200160002060000160008373ffffffffffffffffffffffffffffffffffffffff1673ffffffffffffffffffffffffffffffffffffffff16815260200190815260200160002060009054906101000a900460ff16905092915050565b7f80cf436e8c0e82a48cfeb5bfead0f114e29052f44c57aa6f6d987fb8edf619b381565b60606001805461139190613549565b80601f01602080910402602001604051908101604052809291908181526020018280546113bd90613549565b801561140a5780601f106113df5761010080835404028352916020019161140a565b820191906000526020600020905b8154815290600101906020018083116113ed57829003601f168201915b5050505050905090565b6000808203611458576040517f08c379a000000000000000000000000000000000000000000000000000000000815260040161144f90613e59565b60405180910390fd5b816015819055506001601660006101000a81548160ff0219169083151502179055506015549050919050565b6000801b81565b61149d6114966117a3565b8383611d78565b5050565b6114b26114ac6117a3565b83611864565b6114f1576040517f08c379a00000000000000000000000000000000000000000000000000000000081526004016114e89061396c565b60405180910390fd5b6114fd84848484611ee4565b50505050565b60195481565b606061151482611758565b600061151e611f40565b9050600081511161153e5760405180602001604052806000815250611569565b8061154884611f57565b604051602001611559929190613eb5565b6040516020818303038152906040525b915050919050565b60135481565b7f9f2df0fed2c77648de5860a4cc508cd0818c85b8b8a1ab4ceeef8d981c8956a681565b6115a482610de0565b6115ad81611b5f565b6115b78383611c54565b505050565b600d5481565b600080600c54426115d39190613ab0565b90506000816012546115e591906138b8565b9050600081670de0b6b3a7640000600b6000015461160391906138b8565b61160d9190613887565b90506000600f548261161f91906138b8565b90508094505050505090565b601660009054906101000a900460ff1681565b6000600560008473ffffffffffffffffffffffffffffffffffffffff1673ffffffffffffffffffffffffffffffffffffffff16815260200190815260200160002060008373ffffffffffffffffffffffffffffffffffffffff1673ffffffffffffffffffffffffffffffffffffffff16815260200190815260200160002060009054906101000a900460ff16905092915050565b60105481565b600f5481565b60007f7965db0b000000000000000000000000000000000000000000000000000000007bffffffffffffffffffffffffffffffffffffffffffffffffffffffff1916827bffffffffffffffffffffffffffffffffffffffffffffffffffffffff191614806117515750611750826120b7565b5b9050919050565b61176181612131565b6117a0576040517f08c379a000000000000000000000000000000000000000000000000000000000815260040161179790613d5b565b60405180910390fd5b50565b600033905090565b816004600083815260200190815260200160002060006101000a81548173ffffffffffffffffffffffffffffffffffffffff021916908373ffffffffffffffffffffffffffffffffffffffff160217905550808273ffffffffffffffffffffffffffffffffffffffff1661181e83611179565b73ffffffffffffffffffffffffffffffffffffffff167f8c5be1e5ebec7d5bd14f71427d1e84f3dd0314c0f7b2291e5b200ac8c7c3b92560405160405180910390a45050565b60008061187083611179565b90508073ffffffffffffffffffffffffffffffffffffffff168473ffffffffffffffffffffffffffffffffffffffff1614806118b257506118b1818561163e565b5b806118f057508373ffffffffffffffffffffffffffffffffffffffff166118d884610afc565b73ffffffffffffffffffffffffffffffffffffffff16145b91505092915050565b8273ffffffffffffffffffffffffffffffffffffffff1661191982611179565b73ffffffffffffffffffffffffffffffffffffffff161461196f576040517f08c379a000000000000000000000000000000000000000000000000000000000815260040161196690613f4b565b60405180910390fd5b600073ffffffffffffffffffffffffffffffffffffffff168273ffffffffffffffffffffffffffffffffffffffff16036119de576040517f08c379a00000000000000000000000000000000000000000000000000000000081526004016119d590613fdd565b60405180910390fd5b6119e983838361219d565b6119f46000826117ab565b6001600360008573ffffffffffffffffffffffffffffffffffffffff1673ffffffffffffffffffffffffffffffffffffffff1681526020019081526020016000206000828254611a449190613ab0565b925050819055506001600360008473ffffffffffffffffffffffffffffffffffffffff1673ffffffffffffffffffffffffffffffffffffffff1681526020019081526020016000206000828254611a9b9190613ffd565b92505081905550816002600083815260200190815260200160002060006101000a81548173ffffffffffffffffffffffffffffffffffffffff021916908373ffffffffffffffffffffffffffffffffffffffff160217905550808273ffffffffffffffffffffffffffffffffffffffff168473ffffffffffffffffffffffffffffffffffffffff167fddf252ad1be2c89b69c2b068fc378daa952ba7f163c4a11628f55a4df523b3ef60405160405180910390a4611b5a8383836121ad565b505050565b611b7081611b6b6117a3565b6121b2565b50565b611b7d82826112f3565b611c50576001600a600084815260200190815260200160002060000160008373ffffffffffffffffffffffffffffffffffffffff1673ffffffffffffffffffffffffffffffffffffffff16815260200190815260200160002060006101000a81548160ff021916908315150217905550611bf56117a3565b73ffffffffffffffffffffffffffffffffffffffff168173ffffffffffffffffffffffffffffffffffffffff16837f2f8788117e7eff1d82e926ec794901d17c78024a50270940304540a733656f0d60405160405180910390a45b5050565b611c5e82826112f3565b15611d32576000600a600084815260200190815260200160002060000160008373ffffffffffffffffffffffffffffffffffffffff1673ffffffffffffffffffffffffffffffffffffffff16815260200190815260200160002060006101000a81548160ff021916908315150217905550611cd76117a3565b73ffffffffffffffffffffffffffffffffffffffff168173ffffffffffffffffffffffffffffffffffffffff16837ff6391f5c32d9c69d2a47ea670b442974b53935d1edc7fd64eb21e047a839171b60405160405180910390a45b5050565b600081600001549050919050565b6001816000016000828254019250508190555050565b611d7482826040518060200160405280600081525061224f565b5050565b8173ffffffffffffffffffffffffffffffffffffffff168373ffffffffffffffffffffffffffffffffffffffff1603611de6576040517f08c379a0000000000000000000000000000000000000000000000000000000008152600401611ddd9061407d565b60405180910390fd5b80600560008573ffffffffffffffffffffffffffffffffffffffff1673ffffffffffffffffffffffffffffffffffffffff16815260200190815260200160002060008473ffffffffffffffffffffffffffffffffffffffff1673ffffffffffffffffffffffffffffffffffffffff16815260200190815260200160002060006101000a81548160ff0219169083151502179055508173ffffffffffffffffffffffffffffffffffffffff168373ffffffffffffffffffffffffffffffffffffffff167f17307eab39ab6107e8899845ad3d59bd9653f200f220920489ca2b5937696c3183604051611ed79190612e86565b60405180910390a3505050565b611eef8484846118f9565b611efb848484846122aa565b611f3a576040517f08c379a0000000000000000000000000000000000000000000000000000000008152600401611f319061410f565b60405180910390fd5b50505050565b606060405180602001604052806000815250905090565b606060008203611f9e576040518060400160405280600181526020017f300000000000000000000000000000000000000000000000000000000000000081525090506120b2565b600082905060005b60008214611fd0578080611fb99061412f565b915050600a82611fc99190613887565b9150611fa6565b60008167ffffffffffffffff811115611fec57611feb61332c565b5b6040519080825280601f01601f19166020018201604052801561201e5781602001600182028036833780820191505090505b5090505b600085146120ab576001826120379190613ab0565b9150600a856120469190614177565b60306120529190613ffd565b60f81b81838151811061206857612067613ce0565b5b60200101907effffffffffffffffffffffffffffffffffffffffffffffffffffffffffffff1916908160001a905350600a856120a49190613887565b9450612022565b8093505050505b919050565b60007f780e9d63000000000000000000000000000000000000000000000000000000007bffffffffffffffffffffffffffffffffffffffffffffffffffffffff1916827bffffffffffffffffffffffffffffffffffffffffffffffffffffffff1916148061212a575061212982612431565b5b9050919050565b60008073ffffffffffffffffffffffffffffffffffffffff166002600084815260200190815260200160002060009054906101000a900473ffffffffffffffffffffffffffffffffffffffff1673ffffffffffffffffffffffffffffffffffffffff1614159050919050565b6121a8838383612513565b505050565b505050565b6121bc82826112f3565b61224b576121e18173ffffffffffffffffffffffffffffffffffffffff166014612625565b6121ef8360001c6020612625565b604051602001612200929190614240565b6040516020818303038152906040526040517f08c379a00000000000000000000000000000000000000000000000000000000081526004016122429190612f31565b60405180910390fd5b5050565b6122598383612861565b61226660008484846122aa565b6122a5576040517f08c379a000000000000000000000000000000000000000000000000000000000815260040161229c9061410f565b60405180910390fd5b505050565b60006122cb8473ffffffffffffffffffffffffffffffffffffffff16612a3a565b15612424578373ffffffffffffffffffffffffffffffffffffffff1663150b7a026122f46117a3565b8786866040518563ffffffff1660e01b815260040161231694939291906142cf565b6020604051808303816000875af192505050801561235257506040513d601f19601f8201168201806040525081019061234f9190614330565b60015b6123d4573d8060008114612382576040519150601f19603f3d011682016040523d82523d6000602084013e612387565b606091505b5060008151036123cc576040517f08c379a00000000000000000000000000000000000000000000000000000000081526004016123c39061410f565b60405180910390fd5b805181602001fd5b63150b7a0260e01b7bffffffffffffffffffffffffffffffffffffffffffffffffffffffff1916817bffffffffffffffffffffffffffffffffffffffffffffffffffffffff191614915050612429565b600190505b949350505050565b60007f80ac58cd000000000000000000000000000000000000000000000000000000007bffffffffffffffffffffffffffffffffffffffffffffffffffffffff1916827bffffffffffffffffffffffffffffffffffffffffffffffffffffffff191614806124fc57507f5b5e139f000000000000000000000000000000000000000000000000000000007bffffffffffffffffffffffffffffffffffffffffffffffffffffffff1916827bffffffffffffffffffffffffffffffffffffffffffffffffffffffff1916145b8061250c575061250b82612a5d565b5b9050919050565b61251e838383612ac7565b600073ffffffffffffffffffffffffffffffffffffffff168373ffffffffffffffffffffffffffffffffffffffff16036125605761255b81612acc565b61259f565b8173ffffffffffffffffffffffffffffffffffffffff168373ffffffffffffffffffffffffffffffffffffffff161461259e5761259d8382612b15565b5b5b600073ffffffffffffffffffffffffffffffffffffffff168273ffffffffffffffffffffffffffffffffffffffff16036125e1576125dc81612c82565b612620565b8273ffffffffffffffffffffffffffffffffffffffff168273ffffffffffffffffffffffffffffffffffffffff161461261f5761261e8282612d53565b5b5b505050565b60606000600283600261263891906138b8565b6126429190613ffd565b67ffffffffffffffff81111561265b5761265a61332c565b5b6040519080825280601f01601f19166020018201604052801561268d5781602001600182028036833780820191505090505b5090507f3000000000000000000000000000000000000000000000000000000000000000816000815181106126c5576126c4613ce0565b5b60200101907effffffffffffffffffffffffffffffffffffffffffffffffffffffffffffff1916908160001a9053507f78000000000000000000000000000000000000000000000000000000000000008160018151811061272957612728613ce0565b5b60200101907effffffffffffffffffffffffffffffffffffffffffffffffffffffffffffff1916908160001a9053506000600184600261276991906138b8565b6127739190613ffd565b90505b6001811115612813577f3031323334353637383961626364656600000000000000000000000000000000600f8616601081106127b5576127b4613ce0565b5b1a60f81b8282815181106127cc576127cb613ce0565b5b60200101907effffffffffffffffffffffffffffffffffffffffffffffffffffffffffffff1916908160001a905350600485901c94508061280c9061435d565b9050612776565b5060008414612857576040517f08c379a000000000000000000000000000000000000000000000000000000000815260040161284e906143d2565b60405180910390fd5b8091505092915050565b600073ffffffffffffffffffffffffffffffffffffffff168273ffffffffffffffffffffffffffffffffffffffff16036128d0576040517f08c379a00000000000000000000000000000000000000000000000000000000081526004016128c79061443e565b60405180910390fd5b6128d981612131565b15612919576040517f08c379a0000000000000000000000000000000000000000000000000000000008152600401612910906144aa565b60405180910390fd5b6129256000838361219d565b6001600360008473ffffffffffffffffffffffffffffffffffffffff1673ffffffffffffffffffffffffffffffffffffffff16815260200190815260200160002060008282546129759190613ffd565b92505081905550816002600083815260200190815260200160002060006101000a81548173ffffffffffffffffffffffffffffffffffffffff021916908373ffffffffffffffffffffffffffffffffffffffff160217905550808273ffffffffffffffffffffffffffffffffffffffff16600073ffffffffffffffffffffffffffffffffffffffff167fddf252ad1be2c89b69c2b068fc378daa952ba7f163c4a11628f55a4df523b3ef60405160405180910390a4612a36600083836121ad565b5050565b6000808273ffffffffffffffffffffffffffffffffffffffff163b119050919050565b60007f01ffc9a7000000000000000000000000000000000000000000000000000000007bffffffffffffffffffffffffffffffffffffffffffffffffffffffff1916827bffffffffffffffffffffffffffffffffffffffffffffffffffffffff1916149050919050565b505050565b6008805490506009600083815260200190815260200160002081905550600881908060018154018082558091505060019003906000526020600020016000909190919091505550565b60006001612b2284611230565b612b2c9190613ab0565b9050600060076000848152602001908152602001600020549050818114612c11576000600660008673ffffffffffffffffffffffffffffffffffffffff1673ffffffffffffffffffffffffffffffffffffffff168152602001908152602001600020600084815260200190815260200160002054905080600660008773ffffffffffffffffffffffffffffffffffffffff1673ffffffffffffffffffffffffffffffffffffffff168152602001908152602001600020600084815260200190815260200160002081905550816007600083815260200190815260200160002081905550505b6007600084815260200190815260200160002060009055600660008573ffffffffffffffffffffffffffffffffffffffff1673ffffffffffffffffffffffffffffffffffffffff16815260200190815260200160002060008381526020019081526020016000206000905550505050565b60006001600880549050612c969190613ab0565b9050600060096000848152602001908152602001600020549050600060088381548110612cc657612cc5613ce0565b5b906000526020600020015490508060088381548110612ce857612ce7613ce0565b5b906000526020600020018190555081600960008381526020019081526020016000208190555060096000858152602001908152602001600020600090556008805480612d3757612d366144ca565b5b6001900381819060005260206000200160009055905550505050565b6000612d5e83611230565b905081600660008573ffffffffffffffffffffffffffffffffffffffff1673ffffffffffffffffffffffffffffffffffffffff168152602001908152602001600020600083815260200190815260200160002081905550806007600084815260200190815260200160002081905550505050565b6000604051905090565b600080fd5b600080fd5b60007fffffffff0000000000000000000000000000000000000000000000000000000082169050919050565b612e1b81612de6565b8114612e2657600080fd5b50565b600081359050612e3881612e12565b92915050565b600060208284031215612e5457612e53612ddc565b5b6000612e6284828501612e29565b91505092915050565b60008115159050919050565b612e8081612e6b565b82525050565b6000602082019050612e9b6000830184612e77565b92915050565b600081519050919050565b600082825260208201905092915050565b60005b83811015612edb578082015181840152602081019050612ec0565b60008484015250505050565b6000601f19601f8301169050919050565b6000612f0382612ea1565b612f0d8185612eac565b9350612f1d818560208601612ebd565b612f2681612ee7565b840191505092915050565b60006020820190508181036000830152612f4b8184612ef8565b905092915050565b6000819050919050565b612f6681612f53565b8114612f7157600080fd5b50565b600081359050612f8381612f5d565b92915050565b600060208284031215612f9f57612f9e612ddc565b5b6000612fad84828501612f74565b91505092915050565b600073ffffffffffffffffffffffffffffffffffffffff82169050919050565b6000612fe182612fb6565b9050919050565b612ff181612fd6565b82525050565b600060208201905061300c6000830184612fe8565b92915050565b61301b81612fd6565b811461302657600080fd5b50565b60008135905061303881613012565b92915050565b6000806040838503121561305557613054612ddc565b5b600061306385828601613029565b925050602061307485828601612f74565b9150509250929050565b60008060006060848603121561309757613096612ddc565b5b60006130a586828701612f74565b93505060206130b686828701612f74565b92505060406130c786828701612f74565b9150509250925092565b6130da81612f53565b82525050565b60006080820190506130f560008301876130d1565b61310260208301866130d1565b61310f60408301856130d1565b61311c6060830184612e77565b95945050505050565b600060408201905061313a60008301856130d1565b61314760208301846130d1565b9392505050565b600060208201905061316360008301846130d1565b92915050565b60008060006060848603121561318257613181612ddc565b5b600061319086828701613029565b93505060206131a186828701613029565b92505060406131b286828701612f74565b9150509250925092565b6000819050919050565b6131cf816131bc565b81146131da57600080fd5b50565b6000813590506131ec816131c6565b92915050565b60006020828403121561320857613207612ddc565b5b6000613216848285016131dd565b91505092915050565b613228816131bc565b82525050565b6000602082019050613243600083018461321f565b92915050565b600080604083850312156132605761325f612ddc565b5b600061326e858286016131dd565b925050602061327f85828601613029565b9150509250929050565b60006020828403121561329f5761329e612ddc565b5b60006132ad84828501613029565b91505092915050565b6132bf81612e6b565b81146132ca57600080fd5b50565b6000813590506132dc816132b6565b92915050565b600080604083850312156132f9576132f8612ddc565b5b600061330785828601613029565b9250506020613318858286016132cd565b9150509250929050565b600080fd5b600080fd5b7f4e487b7100000000000000000000000000000000000000000000000000000000600052604160045260246000fd5b61336482612ee7565b810181811067ffffffffffffffff821117156133835761338261332c565b5b80604052505050565b6000613396612dd2565b90506133a2828261335b565b919050565b600067ffffffffffffffff8211156133c2576133c161332c565b5b6133cb82612ee7565b9050602081019050919050565b82818337600083830152505050565b60006133fa6133f5846133a7565b61338c565b90508281526020810184848401111561341657613415613327565b5b6134218482856133d8565b509392505050565b600082601f83011261343e5761343d613322565b5b813561344e8482602086016133e7565b91505092915050565b6000806000806080858703121561347157613470612ddc565b5b600061347f87828801613029565b945050602061349087828801613029565b93505060406134a187828801612f74565b925050606085013567ffffffffffffffff8111156134c2576134c1612de1565b5b6134ce87828801613429565b91505092959194509250565b600080604083850312156134f1576134f0612ddc565b5b60006134ff85828601613029565b925050602061351085828601613029565b9150509250929050565b7f4e487b7100000000000000000000000000000000000000000000000000000000600052602260045260246000fd5b6000600282049050600182168061356157607f821691505b6020821081036135745761357361351a565b5b50919050565b7f4552433732313a20617070726f76616c20746f2063757272656e74206f776e6560008201527f7200000000000000000000000000000000000000000000000000000000000000602082015250565b60006135d6602183612eac565b91506135e18261357a565b604082019050919050565b60006020820190508181036000830152613605816135c9565b9050919050565b7f4552433732313a20617070726f76652063616c6c6572206973206e6f7420746f60008201527f6b656e206f776e6572206e6f7220617070726f76656420666f7220616c6c0000602082015250565b6000613668603e83612eac565b91506136738261360c565b604082019050919050565b600060208201905081810360008301526136978161365b565b9050919050565b7f4e487b7100000000000000000000000000000000000000000000000000000000600052601160045260246000fd5b60008160011c9050919050565b6000808291508390505b600185111561372457808604811115613700576136ff61369e565b5b600185161561370f5780820291505b808102905061371d856136cd565b94506136e4565b94509492505050565b60008261373d57600190506137f9565b8161374b57600090506137f9565b8160018114613761576002811461376b5761379a565b60019150506137f9565b60ff84111561377d5761377c61369e565b5b8360020a9150848211156137945761379361369e565b5b506137f9565b5060208310610133831016604e8410600b84101617156137cf5782820a9050838111156137ca576137c961369e565b5b6137f9565b6137dc84848460016136da565b925090508184048111156137f3576137f261369e565b5b81810290505b9392505050565b600060ff82169050919050565b600061381882612f53565b915061382383613800565b92506138507fffffffffffffffffffffffffffffffffffffffffffffffffffffffffffffffff848461372d565b905092915050565b7f4e487b7100000000000000000000000000000000000000000000000000000000600052601260045260246000fd5b600061389282612f53565b915061389d83612f53565b9250826138ad576138ac613858565b5b828204905092915050565b60006138c382612f53565b91506138ce83612f53565b92508282026138dc81612f53565b915082820484148315176138f3576138f261369e565b5b5092915050565b7f4552433732313a2063616c6c6572206973206e6f7420746f6b656e206f776e6560008201527f72206e6f7220617070726f766564000000000000000000000000000000000000602082015250565b6000613956602e83612eac565b9150613961826138fa565b604082019050919050565b6000602082019050818103600083015261398581613949565b9050919050565b7f455243373231456e756d657261626c653a206f776e657220696e646578206f7560008201527f74206f6620626f756e6473000000000000000000000000000000000000000000602082015250565b60006139e8602b83612eac565b91506139f38261398c565b604082019050919050565b60006020820190508181036000830152613a17816139db565b9050919050565b7f416363657373436f6e74726f6c3a2063616e206f6e6c792072656e6f756e636560008201527f20726f6c657320666f722073656c660000000000000000000000000000000000602082015250565b6000613a7a602f83612eac565b9150613a8582613a1e565b604082019050919050565b60006020820190508181036000830152613aa981613a6d565b9050919050565b6000613abb82612f53565b9150613ac683612f53565b9250828203905081811115613ade57613add61369e565b5b92915050565b7f6e6f207072696365207361666564000000000000000000000000000000000000600082015250565b6000613b1a600e83612eac565b9150613b2582613ae4565b602082019050919050565b60006020820190508181036000830152613b4981613b0d565b9050919050565b7f76616c75652062656c6f77207361666564207072696365000000000000000000600082015250565b6000613b86601783612eac565b9150613b9182613b50565b602082019050919050565b60006020820190508181036000830152613bb581613b79565b9050919050565b7f746f74616c20737570706c792065786365656465642c206e6f206d6f7265207460008201527f6f6b656e7320617661696c61626c650000000000000000000000000000000000602082015250565b6000613c18602f83612eac565b9150613c2382613bbc565b604082019050919050565b60006020820190508181036000830152613c4781613c0b565b9050919050565b7f455243373231456e756d657261626c653a20676c6f62616c20696e646578206f60008201527f7574206f6620626f756e64730000000000000000000000000000000000000000602082015250565b6000613caa602c83612eac565b9150613cb582613c4e565b604082019050919050565b60006020820190508181036000830152613cd981613c9d565b9050919050565b7f4e487b7100000000000000000000000000000000000000000000000000000000600052603260045260246000fd5b7f4552433732313a20696e76616c696420746f6b656e2049440000000000000000600082015250565b6000613d45601883612eac565b9150613d5082613d0f565b602082019050919050565b60006020820190508181036000830152613d7481613d38565b9050919050565b7f4552433732313a2061646472657373207a65726f206973206e6f74206120766160008201527f6c6964206f776e65720000000000000000000000000000000000000000000000602082015250565b6000613dd7602983612eac565b9150613de282613d7b565b604082019050919050565b60006020820190508181036000830152613e0681613dca565b9050919050565b7f4e6f205072696365207365740000000000000000000000000000000000000000600082015250565b6000613e43600c83612eac565b9150613e4e82613e0d565b602082019050919050565b60006020820190508181036000830152613e7281613e36565b9050919050565b600081905092915050565b6000613e8f82612ea1565b613e998185613e79565b9350613ea9818560208601612ebd565b80840191505092915050565b6000613ec18285613e84565b9150613ecd8284613e84565b91508190509392505050565b7f4552433732313a207472616e736665722066726f6d20696e636f72726563742060008201527f6f776e6572000000000000000000000000000000000000000000000000000000602082015250565b6000613f35602583612eac565b9150613f4082613ed9565b604082019050919050565b60006020820190508181036000830152613f6481613f28565b9050919050565b7f4552433732313a207472616e7366657220746f20746865207a65726f2061646460008201527f7265737300000000000000000000000000000000000000000000000000000000602082015250565b6000613fc7602483612eac565b9150613fd282613f6b565b604082019050919050565b60006020820190508181036000830152613ff681613fba565b9050919050565b600061400882612f53565b915061401383612f53565b925082820190508082111561402b5761402a61369e565b5b92915050565b7f4552433732313a20617070726f766520746f2063616c6c657200000000000000600082015250565b6000614067601983612eac565b915061407282614031565b602082019050919050565b600060208201905081810360008301526140968161405a565b9050919050565b7f4552433732313a207472616e7366657220746f206e6f6e20455243373231526560008201527f63656976657220696d706c656d656e7465720000000000000000000000000000602082015250565b60006140f9603283612eac565b91506141048261409d565b604082019050919050565b60006020820190508181036000830152614128816140ec565b9050919050565b600061413a82612f53565b91507fffffffffffffffffffffffffffffffffffffffffffffffffffffffffffffffff820361416c5761416b61369e565b5b600182019050919050565b600061418282612f53565b915061418d83612f53565b92508261419d5761419c613858565b5b828206905092915050565b7f416363657373436f6e74726f6c3a206163636f756e7420000000000000000000600082015250565b60006141de601783613e79565b91506141e9826141a8565b601782019050919050565b7f206973206d697373696e6720726f6c6520000000000000000000000000000000600082015250565b600061422a601183613e79565b9150614235826141f4565b601182019050919050565b600061424b826141d1565b91506142578285613e84565b91506142628261421d565b915061426e8284613e84565b91508190509392505050565b600081519050919050565b600082825260208201905092915050565b60006142a18261427a565b6142ab8185614285565b93506142bb818560208601612ebd565b6142c481612ee7565b840191505092915050565b60006080820190506142e46000830187612fe8565b6142f16020830186612fe8565b6142fe60408301856130d1565b81810360608301526143108184614296565b905095945050505050565b60008151905061432a81612e12565b92915050565b60006020828403121561434657614345612ddc565b5b60006143548482850161431b565b91505092915050565b600061436882612f53565b91506000820361437b5761437a61369e565b5b600182039050919050565b7f537472696e67733a20686578206c656e67746820696e73756666696369656e74600082015250565b60006143bc602083612eac565b91506143c782614386565b602082019050919050565b600060208201905081810360008301526143eb816143af565b9050919050565b7f4552433732313a206d696e7420746f20746865207a65726f2061646472657373600082015250565b6000614428602083612eac565b9150614433826143f2565b602082019050919050565b600060208201905081810360008301526144578161441b565b9050919050565b7f4552433732313a20746f6b656e20616c7265616479206d696e74656400000000600082015250565b6000614494601c83612eac565b915061449f8261445e565b602082019050919050565b600060208201905081810360008301526144c381614487565b9050919050565b7f4e487b7100000000000000000000000000000000000000000000000000000000600052603160045260246000fdfea264697066735822122052843daadf586baf49491415ff7d299caed7c23149464291beac681550608f4d64736f6c63430008110033",
  "linkReferences": {},
  "deployedLinkReferences": {}
}